{
  "_format": "hh-sol-artifact-1",
  "contractName": "CryptoGravesNFT",
  "sourceName": "contracts/CryptoGravesNFT.sol",
  "abi": [
    {
      "inputs": [],
      "stateMutability": "nonpayable",
      "type": "constructor"
    },
    {
      "inputs": [
        {
          "internalType": "address",
          "name": "sender",
          "type": "address"
        },
        {
          "internalType": "uint256",
          "name": "tokenId",
          "type": "uint256"
        },
        {
          "internalType": "address",
          "name": "owner",
          "type": "address"
        }
      ],
      "name": "ERC721IncorrectOwner",
      "type": "error"
    },
    {
      "inputs": [
        {
          "internalType": "address",
          "name": "operator",
          "type": "address"
        },
        {
          "internalType": "uint256",
          "name": "tokenId",
          "type": "uint256"
        }
      ],
      "name": "ERC721InsufficientApproval",
      "type": "error"
    },
    {
      "inputs": [
        {
          "internalType": "address",
          "name": "approver",
          "type": "address"
        }
      ],
      "name": "ERC721InvalidApprover",
      "type": "error"
    },
    {
      "inputs": [
        {
          "internalType": "address",
          "name": "operator",
          "type": "address"
        }
      ],
      "name": "ERC721InvalidOperator",
      "type": "error"
    },
    {
      "inputs": [
        {
          "internalType": "address",
          "name": "owner",
          "type": "address"
        }
      ],
      "name": "ERC721InvalidOwner",
      "type": "error"
    },
    {
      "inputs": [
        {
          "internalType": "address",
          "name": "receiver",
          "type": "address"
        }
      ],
      "name": "ERC721InvalidReceiver",
      "type": "error"
    },
    {
      "inputs": [
        {
          "internalType": "address",
          "name": "sender",
          "type": "address"
        }
      ],
      "name": "ERC721InvalidSender",
      "type": "error"
    },
    {
      "inputs": [
        {
          "internalType": "uint256",
          "name": "tokenId",
          "type": "uint256"
        }
      ],
      "name": "ERC721NonexistentToken",
      "type": "error"
    },
    {
      "inputs": [],
      "name": "EnforcedPause",
      "type": "error"
    },
    {
      "inputs": [],
      "name": "ExpectedPause",
      "type": "error"
    },
    {
      "inputs": [
        {
          "internalType": "address",
          "name": "owner",
          "type": "address"
        }
      ],
      "name": "OwnableInvalidOwner",
      "type": "error"
    },
    {
      "inputs": [
        {
          "internalType": "address",
          "name": "account",
          "type": "address"
        }
      ],
      "name": "OwnableUnauthorizedAccount",
      "type": "error"
    },
    {
      "inputs": [],
      "name": "ReentrancyGuardReentrantCall",
      "type": "error"
    },
    {
      "anonymous": false,
      "inputs": [
        {
          "indexed": true,
          "internalType": "address",
          "name": "owner",
          "type": "address"
        },
        {
          "indexed": true,
          "internalType": "address",
          "name": "approved",
          "type": "address"
        },
        {
          "indexed": true,
          "internalType": "uint256",
          "name": "tokenId",
          "type": "uint256"
        }
      ],
      "name": "Approval",
      "type": "event"
    },
    {
      "anonymous": false,
      "inputs": [
        {
          "indexed": true,
          "internalType": "address",
          "name": "owner",
          "type": "address"
        },
        {
          "indexed": true,
          "internalType": "address",
          "name": "operator",
          "type": "address"
        },
        {
          "indexed": false,
          "internalType": "bool",
          "name": "approved",
          "type": "bool"
        }
      ],
      "name": "ApprovalForAll",
      "type": "event"
    },
    {
      "anonymous": false,
      "inputs": [
        {
          "indexed": false,
          "internalType": "uint256",
          "name": "_fromTokenId",
          "type": "uint256"
        },
        {
          "indexed": false,
          "internalType": "uint256",
          "name": "_toTokenId",
          "type": "uint256"
        }
      ],
      "name": "BatchMetadataUpdate",
      "type": "event"
    },
    {
      "anonymous": false,
      "inputs": [
        {
          "indexed": false,
          "internalType": "uint256",
          "name": "_tokenId",
          "type": "uint256"
        }
      ],
      "name": "MetadataUpdate",
      "type": "event"
    },
    {
      "anonymous": false,
      "inputs": [
        {
          "indexed": true,
          "internalType": "uint256",
          "name": "tokenId",
          "type": "uint256"
        },
        {
          "indexed": true,
          "internalType": "string",
          "name": "walletAddress",
          "type": "string"
        },
        {
          "indexed": false,
          "internalType": "string",
          "name": "ticker",
          "type": "string"
        },
        {
          "indexed": false,
          "internalType": "uint256",
          "name": "lossRate",
          "type": "uint256"
        },
        {
          "indexed": false,
          "internalType": "uint256",
          "name": "lossAmount",
          "type": "uint256"
        },
        {
          "indexed": false,
          "internalType": "uint256",
          "name": "timestamp",
          "type": "uint256"
        }
      ],
      "name": "NFTMinted",
      "type": "event"
    },
    {
      "anonymous": false,
      "inputs": [
        {
          "indexed": true,
          "internalType": "address",
          "name": "previousOwner",
          "type": "address"
        },
        {
          "indexed": true,
          "internalType": "address",
          "name": "newOwner",
          "type": "address"
        }
      ],
      "name": "OwnershipTransferred",
      "type": "event"
    },
    {
      "anonymous": false,
      "inputs": [
        {
          "indexed": false,
          "internalType": "address",
          "name": "account",
          "type": "address"
        }
      ],
      "name": "Paused",
      "type": "event"
    },
    {
      "anonymous": false,
      "inputs": [
        {
          "indexed": true,
          "internalType": "address",
          "name": "from",
          "type": "address"
        },
        {
          "indexed": true,
          "internalType": "address",
          "name": "to",
          "type": "address"
        },
        {
          "indexed": true,
          "internalType": "uint256",
          "name": "tokenId",
          "type": "uint256"
        }
      ],
      "name": "Transfer",
      "type": "event"
    },
    {
      "anonymous": false,
      "inputs": [
        {
          "indexed": false,
          "internalType": "address",
          "name": "account",
          "type": "address"
        }
      ],
      "name": "Unpaused",
      "type": "event"
    },
    {
      "anonymous": false,
      "inputs": [
        {
          "indexed": true,
          "internalType": "string",
          "name": "walletAddress",
          "type": "string"
        },
        {
          "indexed": false,
          "internalType": "bool",
          "name": "verified",
          "type": "bool"
        }
      ],
      "name": "WalletVerified",
      "type": "event"
    },
    {
      "inputs": [],
      "name": "MAX_LOSS_RATE",
      "outputs": [
        {
          "internalType": "uint256",
          "name": "",
          "type": "uint256"
        }
      ],
      "stateMutability": "view",
      "type": "function"
    },
    {
      "inputs": [],
      "name": "MIN_LOSS_AMOUNT",
      "outputs": [
        {
          "internalType": "uint256",
          "name": "",
          "type": "uint256"
        }
      ],
      "stateMutability": "view",
      "type": "function"
    },
    {
      "inputs": [],
      "name": "MIN_LOSS_RATE",
      "outputs": [
        {
          "internalType": "uint256",
          "name": "",
          "type": "uint256"
        }
      ],
      "stateMutability": "view",
      "type": "function"
    },
    {
      "inputs": [
        {
          "internalType": "address",
          "name": "to",
          "type": "address"
        },
        {
          "internalType": "uint256",
          "name": "tokenId",
          "type": "uint256"
        }
      ],
      "name": "approve",
      "outputs": [],
      "stateMutability": "nonpayable",
      "type": "function"
    },
    {
      "inputs": [
        {
          "internalType": "address",
          "name": "owner",
          "type": "address"
        }
      ],
      "name": "balanceOf",
      "outputs": [
        {
          "internalType": "uint256",
          "name": "",
          "type": "uint256"
        }
      ],
      "stateMutability": "view",
      "type": "function"
    },
    {
      "inputs": [
        {
          "internalType": "string[]",
          "name": "walletAddresses",
          "type": "string[]"
        },
        {
          "internalType": "bool[]",
          "name": "verified",
          "type": "bool[]"
        }
      ],
      "name": "batchVerifyWallets",
      "outputs": [],
      "stateMutability": "nonpayable",
      "type": "function"
    },
    {
      "inputs": [
        {
          "internalType": "uint256",
          "name": "tokenId",
          "type": "uint256"
        }
      ],
      "name": "getApproved",
      "outputs": [
        {
          "internalType": "address",
          "name": "",
          "type": "address"
        }
      ],
      "stateMutability": "view",
      "type": "function"
    },
    {
      "inputs": [
        {
          "internalType": "string",
          "name": "walletAddress",
          "type": "string"
        },
        {
          "internalType": "string",
          "name": "ticker",
          "type": "string"
        }
      ],
      "name": "getNFTByWalletAndTicker",
      "outputs": [
        {
          "internalType": "uint256",
          "name": "tokenId",
          "type": "uint256"
        },
        {
          "components": [
            {
              "internalType": "string",
              "name": "walletAddress",
              "type": "string"
            },
            {
              "internalType": "uint256",
              "name": "lossRate",
              "type": "uint256"
            },
            {
              "internalType": "uint256",
              "name": "lossAmount",
              "type": "uint256"
            },
            {
              "internalType": "string",
              "name": "ticker",
              "type": "string"
            },
            {
              "internalType": "uint256",
              "name": "timestamp",
              "type": "uint256"
            },
            {
              "internalType": "bool",
              "name": "verified",
              "type": "bool"
            }
          ],
          "internalType": "struct CryptoGravesNFT.NFTMetadata",
          "name": "metadata",
          "type": "tuple"
        }
      ],
      "stateMutability": "view",
      "type": "function"
    },
    {
      "inputs": [
        {
          "internalType": "string",
          "name": "walletAddress",
          "type": "string"
        }
      ],
      "name": "getNFTsByWallet",
      "outputs": [
        {
          "internalType": "uint256[]",
          "name": "tokenIds",
          "type": "uint256[]"
        }
      ],
      "stateMutability": "view",
      "type": "function"
    },
    {
      "inputs": [
        {
          "internalType": "uint256",
          "name": "tokenId",
          "type": "uint256"
        }
      ],
      "name": "getTokenMetadata",
      "outputs": [
        {
          "components": [
            {
              "internalType": "string",
              "name": "walletAddress",
              "type": "string"
            },
            {
              "internalType": "uint256",
              "name": "lossRate",
              "type": "uint256"
            },
            {
              "internalType": "uint256",
              "name": "lossAmount",
              "type": "uint256"
            },
            {
              "internalType": "string",
              "name": "ticker",
              "type": "string"
            },
            {
              "internalType": "uint256",
              "name": "timestamp",
              "type": "uint256"
            },
            {
              "internalType": "bool",
              "name": "verified",
              "type": "bool"
            }
          ],
          "internalType": "struct CryptoGravesNFT.NFTMetadata",
          "name": "",
          "type": "tuple"
        }
      ],
      "stateMutability": "view",
      "type": "function"
    },
    {
      "inputs": [
        {
          "internalType": "address",
          "name": "owner",
          "type": "address"
        },
        {
          "internalType": "address",
          "name": "operator",
          "type": "address"
        }
      ],
      "name": "isApprovedForAll",
      "outputs": [
        {
          "internalType": "bool",
          "name": "",
          "type": "bool"
        }
      ],
      "stateMutability": "view",
      "type": "function"
    },
    {
      "inputs": [
        {
          "internalType": "string",
          "name": "walletAddress",
          "type": "string"
        },
        {
          "internalType": "uint256",
          "name": "lossRate",
          "type": "uint256"
        },
        {
          "internalType": "uint256",
          "name": "lossAmount",
          "type": "uint256"
        },
        {
          "internalType": "string",
          "name": "ticker",
          "type": "string"
        },
        {
          "internalType": "string",
          "name": "metadataURI",
          "type": "string"
        }
      ],
      "name": "mintNFT",
      "outputs": [
        {
          "internalType": "uint256",
          "name": "",
          "type": "uint256"
        }
      ],
      "stateMutability": "nonpayable",
      "type": "function"
    },
    {
      "inputs": [],
      "name": "name",
      "outputs": [
        {
          "internalType": "string",
          "name": "",
          "type": "string"
        }
      ],
      "stateMutability": "view",
      "type": "function"
    },
    {
      "inputs": [],
      "name": "owner",
      "outputs": [
        {
          "internalType": "address",
          "name": "",
          "type": "address"
        }
      ],
      "stateMutability": "view",
      "type": "function"
    },
    {
      "inputs": [
        {
          "internalType": "uint256",
          "name": "tokenId",
          "type": "uint256"
        }
      ],
      "name": "ownerOf",
      "outputs": [
        {
          "internalType": "address",
          "name": "",
          "type": "address"
        }
      ],
      "stateMutability": "view",
      "type": "function"
    },
    {
      "inputs": [],
      "name": "pause",
      "outputs": [],
      "stateMutability": "nonpayable",
      "type": "function"
    },
    {
      "inputs": [],
      "name": "paused",
      "outputs": [
        {
          "internalType": "bool",
          "name": "",
          "type": "bool"
        }
      ],
      "stateMutability": "view",
      "type": "function"
    },
    {
      "inputs": [],
      "name": "renounceOwnership",
      "outputs": [],
      "stateMutability": "nonpayable",
      "type": "function"
    },
    {
      "inputs": [
        {
          "internalType": "address",
          "name": "from",
          "type": "address"
        },
        {
          "internalType": "address",
          "name": "to",
          "type": "address"
        },
        {
          "internalType": "uint256",
          "name": "tokenId",
          "type": "uint256"
        }
      ],
      "name": "safeTransferFrom",
      "outputs": [],
      "stateMutability": "nonpayable",
      "type": "function"
    },
    {
      "inputs": [
        {
          "internalType": "address",
          "name": "from",
          "type": "address"
        },
        {
          "internalType": "address",
          "name": "to",
          "type": "address"
        },
        {
          "internalType": "uint256",
          "name": "tokenId",
          "type": "uint256"
        },
        {
          "internalType": "bytes",
          "name": "data",
          "type": "bytes"
        }
      ],
      "name": "safeTransferFrom",
      "outputs": [],
      "stateMutability": "nonpayable",
      "type": "function"
    },
    {
      "inputs": [
        {
          "internalType": "address",
          "name": "operator",
          "type": "address"
        },
        {
          "internalType": "bool",
          "name": "approved",
          "type": "bool"
        }
      ],
      "name": "setApprovalForAll",
      "outputs": [],
      "stateMutability": "nonpayable",
      "type": "function"
    },
    {
      "inputs": [
        {
          "internalType": "bytes4",
          "name": "interfaceId",
          "type": "bytes4"
        }
      ],
      "name": "supportsInterface",
      "outputs": [
        {
          "internalType": "bool",
          "name": "",
          "type": "bool"
        }
      ],
      "stateMutability": "view",
      "type": "function"
    },
    {
      "inputs": [],
      "name": "symbol",
      "outputs": [
        {
          "internalType": "string",
          "name": "",
          "type": "string"
        }
      ],
      "stateMutability": "view",
      "type": "function"
    },
    {
      "inputs": [
        {
          "internalType": "uint256",
          "name": "",
          "type": "uint256"
        }
      ],
      "name": "tokenMetadata",
      "outputs": [
        {
          "internalType": "string",
          "name": "walletAddress",
          "type": "string"
        },
        {
          "internalType": "uint256",
          "name": "lossRate",
          "type": "uint256"
        },
        {
          "internalType": "uint256",
          "name": "lossAmount",
          "type": "uint256"
        },
        {
          "internalType": "string",
          "name": "ticker",
          "type": "string"
        },
        {
          "internalType": "uint256",
          "name": "timestamp",
          "type": "uint256"
        },
        {
          "internalType": "bool",
          "name": "verified",
          "type": "bool"
        }
      ],
      "stateMutability": "view",
      "type": "function"
    },
    {
      "inputs": [
        {
          "internalType": "uint256",
          "name": "tokenId",
          "type": "uint256"
        }
      ],
      "name": "tokenURI",
      "outputs": [
        {
          "internalType": "string",
          "name": "",
          "type": "string"
        }
      ],
      "stateMutability": "view",
      "type": "function"
    },
    {
      "inputs": [
        {
          "internalType": "address",
          "name": "from",
          "type": "address"
        },
        {
          "internalType": "address",
          "name": "to",
          "type": "address"
        },
        {
          "internalType": "uint256",
          "name": "tokenId",
          "type": "uint256"
        }
      ],
      "name": "transferFrom",
      "outputs": [],
      "stateMutability": "nonpayable",
      "type": "function"
    },
    {
      "inputs": [
        {
          "internalType": "address",
          "name": "newOwner",
          "type": "address"
        }
      ],
      "name": "transferOwnership",
      "outputs": [],
      "stateMutability": "nonpayable",
      "type": "function"
    },
    {
      "inputs": [],
      "name": "unpause",
      "outputs": [],
      "stateMutability": "nonpayable",
      "type": "function"
    },
    {
      "inputs": [
        {
          "internalType": "string",
          "name": "",
          "type": "string"
        }
      ],
      "name": "verifiedWallets",
      "outputs": [
        {
          "internalType": "bool",
          "name": "",
          "type": "bool"
        }
      ],
      "stateMutability": "view",
      "type": "function"
    },
    {
      "inputs": [
        {
          "internalType": "string",
          "name": "walletAddress",
          "type": "string"
        },
        {
          "internalType": "bool",
          "name": "verified",
          "type": "bool"
        }
      ],
      "name": "verifyWallet",
      "outputs": [],
      "stateMutability": "nonpayable",
      "type": "function"
    },
    {
      "inputs": [
        {
          "internalType": "string",
          "name": "",
          "type": "string"
        },
        {
          "internalType": "string",
          "name": "",
          "type": "string"
        }
      ],
      "name": "walletTickerToTokenId",
      "outputs": [
        {
          "internalType": "uint256",
          "name": "",
          "type": "uint256"
        }
      ],
      "stateMutability": "view",
      "type": "function"
    }
  ],
  "bytecode": "0x60806040523480156200001157600080fd5b50336040518060400160405280601181526020017010dc9e5c1d1bc811dc985d995cc8139195607a1b8152506040518060400160405280600581526020016410d1d3919560da1b81525081600090816200006c9190620001bb565b5060016200007b8282620001bb565b5050506001600160a01b038116620000ad57604051631e4fbdf760e01b81526000600482015260240160405180910390fd5b620000b881620000c4565b50600160085562000287565b600780546001600160a01b038381166001600160a01b0319831681179093556040519116919082907f8be0079c531659141344cd1fd0a4f28419497f9722a3daafe3b4186f6b6457e090600090a35050565b634e487b7160e01b600052604160045260246000fd5b600181811c908216806200014157607f821691505b6020821081036200016257634e487b7160e01b600052602260045260246000fd5b50919050565b601f821115620001b657600081815260208120601f850160051c81016020861015620001915750805b601f850160051c820191505b81811015620001b2578281556001016200019d565b5050505b505050565b81516001600160401b03811115620001d757620001d762000116565b620001ef81620001e884546200012c565b8462000168565b602080601f8311600181146200022757600084156200020e5750858301515b600019600386901b1c1916600185901b178555620001b2565b600085815260208120601f198616915b82811015620002585788860151825594840194600190910190840162000237565b5085821015620002775787850151600019600388901b60f8161c191681555b5050505050600190811b01905550565b6126ee80620002976000396000f3fe608060405234801561001057600080fd5b50600436106101e55760003560e01c806376a3e7471161010f578063ac2a18bb116100a2578063ceb83ef311610071578063ceb83ef314610410578063e57483421461043e578063e985e9c514610486578063f2fde38b1461049957600080fd5b8063ac2a18bb146103c0578063b88d4fde146103e1578063c87b56dd146103f4578063cc6f9cd71461040757600080fd5b806395d89b41116100de57806395d89b411461037f5780639e4a1f8314610387578063a08a310b1461039a578063a22cb465146103ad57600080fd5b806376a3e747146103325780637a842408146103455780638456cb59146103665780638da5cb5b1461036e57600080fd5b80634ee06519116101875780636352211e116101565780636352211e146102df5780636914db60146102f257806370a0823114610317578063715018a61461032a57600080fd5b80634ee06519146102955780635855ed40146102ab5780635c975abb146102b457806360316801146102bf57600080fd5b8063095ea7b3116101c3578063095ea7b31461025257806323b872dd146102675780633f4ba83a1461027a57806342842e0e1461028257600080fd5b806301ffc9a7146101ea57806306fdde0314610212578063081812fc14610227575b600080fd5b6101fd6101f8366004611d8e565b6104ac565b60405190151581526020015b60405180910390f35b61021a6104bd565b6040516102099190611dfb565b61023a610235366004611e0e565b61054f565b6040516001600160a01b039091168152602001610209565b610265610260366004611e43565b610578565b005b610265610275366004611e6d565b610587565b610265610617565b610265610290366004611e6d565b610629565b61029d606481565b604051908152602001610209565b61029d61271081565b60095460ff166101fd565b6102d26102cd366004611e0e565b610649565b6040516102099190611f0e565b61023a6102ed366004611e0e565b61084f565b610305610300366004611e0e565b61085a565b60405161020996959493929190611f21565b61029d610325366004611f6d565b6109a2565b6102656109ea565b6102656103403660046120ed565b6109fc565b6103596103533660046121c1565b50606090565b60405161020991906121f6565b610265610b54565b6007546001600160a01b031661023a565b61021a610b64565b61026561039536600461223a565b610b73565b61029d6103a8366004612288565b610bf8565b6102656103bb366004612324565b610ff8565b6103d36103ce36600461234e565b611003565b6040516102099291906123a8565b6102656103ef3660046123c1565b611232565b61021a610402366004611e0e565b61124a565b61029d6101f481565b6101fd61041e3660046121c1565b8051602081830181018051600d8252928201919093012091525460ff1681565b61029d61044c36600461234e565b8151602081840181018051600c82529282019482019490942091909352815180830184018051928152908401929093019190912091525481565b6101fd61049436600461243d565b611255565b6102656104a7366004611f6d565b611283565b60006104b7826112c1565b92915050565b6060600080546104cc90612467565b80601f01602080910402602001604051908101604052809291908181526020018280546104f890612467565b80156105455780601f1061051a57610100808354040283529160200191610545565b820191906000526020600020905b81548152906001019060200180831161052857829003601f168201915b5050505050905090565b600061055a826112e6565b506000828152600460205260409020546001600160a01b03166104b7565b61058382823361131f565b5050565b6001600160a01b0382166105b657604051633250574960e11b8152600060048201526024015b60405180910390fd5b60006105c383833361132c565b9050836001600160a01b0316816001600160a01b031614610611576040516364283d7b60e01b81526001600160a01b03808616600483015260248201849052821660448201526064016105ad565b50505050565b61061f611349565b610627611376565b565b61064483838360405180602001604052806000815250611232565b505050565b6106846040518060c0016040528060608152602001600081526020016000815260200160608152602001600081526020016000151581525090565b6000828152600260205260409020546001600160a01b03166106df5760405162461bcd60e51b8152602060048201526014602482015273151bdad95b88191bd95cc81b9bdd08195e1a5cdd60621b60448201526064016105ad565b6000828152600b602052604090819020815160c0810190925280548290829061070790612467565b80601f016020809104026020016040519081016040528092919081815260200182805461073390612467565b80156107805780601f1061075557610100808354040283529160200191610780565b820191906000526020600020905b81548152906001019060200180831161076357829003601f168201915b5050505050815260200160018201548152602001600282015481526020016003820180546107ad90612467565b80601f01602080910402602001604051908101604052809291908181526020018280546107d990612467565b80156108265780601f106107fb57610100808354040283529160200191610826565b820191906000526020600020905b81548152906001019060200180831161080957829003601f168201915b50505091835250506004820154602082015260059091015460ff16151560409091015292915050565b60006104b7826112e6565b600b6020526000908152604090208054819061087590612467565b80601f01602080910402602001604051908101604052809291908181526020018280546108a190612467565b80156108ee5780601f106108c3576101008083540402835291602001916108ee565b820191906000526020600020905b8154815290600101906020018083116108d157829003601f168201915b50505050509080600101549080600201549080600301805461090f90612467565b80601f016020809104026020016040519081016040528092919081815260200182805461093b90612467565b80156109885780601f1061095d57610100808354040283529160200191610988565b820191906000526020600020905b81548152906001019060200180831161096b57829003601f168201915b50505050600483015460059093015491929160ff16905086565b60006001600160a01b0382166109ce576040516322718ad960e21b8152600060048201526024016105ad565b506001600160a01b031660009081526003602052604090205490565b6109f2611349565b61062760006113c8565b610a04611349565b8051825114610a4e5760405162461bcd60e51b8152602060048201526016602482015275082e4e4c2f2e640d8cadccee8d040dad2e6dac2e8c6d60531b60448201526064016105ad565b60005b825181101561064457818181518110610a6c57610a6c6124a1565b6020026020010151600d848381518110610a8857610a886124a1565b6020026020010151604051610a9d91906124b7565b908152604051908190036020019020805491151560ff199092169190911790558251839082908110610ad157610ad16124a1565b6020026020010151604051610ae691906124b7565b60405180910390207fa7ea1ac8e85b0c4072bbfd22356f34575508370445f6ba87c90a03972f8f6cbb838381518110610b2157610b216124a1565b6020026020010151604051610b3a911515815260200190565b60405180910390a280610b4c816124d3565b915050610a51565b610b5c611349565b61062761141a565b6060600180546104cc90612467565b610b7b611349565b80600d83604051610b8c91906124b7565b908152604051908190036020018120805492151560ff1990931692909217909155610bb89083906124b7565b6040519081900381208215158252907fa7ea1ac8e85b0c4072bbfd22356f34575508370445f6ba87c90a03972f8f6cbb9060200160405180910390a25050565b6000610c02611457565b610c0a611481565b600d86604051610c1a91906124b7565b9081526040519081900360200190205460ff16610c6f5760405162461bcd60e51b815260206004820152601360248201527215d85b1b195d081b9bdd081d995c9a599a5959606a1b60448201526064016105ad565b6101f4851015610cb55760405162461bcd60e51b81526020600482015260116024820152704c6f7373207261746520746f6f206c6f7760781b60448201526064016105ad565b612710851115610cfc5760405162461bcd60e51b8152602060048201526012602482015271098dee6e640e4c2e8ca40e8dede40d0d2ced60731b60448201526064016105ad565b6064841015610d435760405162461bcd60e51b81526020600482015260136024820152724c6f737320616d6f756e7420746f6f206c6f7760681b60448201526064016105ad565b600c86604051610d5391906124b7565b908152602001604051809103902083604051610d6f91906124b7565b908152602001604051809103902054600014610de35760405162461bcd60e51b815260206004820152602d60248201527f4e465420616c72656164792065786973747320666f7220746869732077616c6c60448201526c32ba1030b732103a34b1b5b2b960991b60648201526084016105ad565b60008351118015610df65750600a835111155b610e3a5760405162461bcd60e51b8152602060048201526015602482015274092dcecc2d8d2c840e8d2c6d6cae440d8cadccee8d605b1b60448201526064016105ad565b8551602a14610e8b5760405162461bcd60e51b815260206004820152601d60248201527f496e76616c69642077616c6c65742061646472657373206c656e67746800000060448201526064016105ad565b600a8054906000610e9b836124d3565b9091555050600a54610ead33826114a5565b610eb781846114bf565b6040805160c081018252888152602080820189905281830188905260608201879052426080830152600160a08301526000848152600b9091529190912081518190610f029082612540565b50602082015160018201556040820151600282015560608201516003820190610f2b9082612540565b506080820151600482015560a0909101516005909101805460ff19169115159190911790556040518190600c90610f63908a906124b7565b908152602001604051809103902085604051610f7f91906124b7565b90815260405190819003602001812091909155610f9d9088906124b7565b6040518091039020817f8cad9150e5be17cf0333c6d81e66ae09bee247924044e581a139b086a5932d0686898942604051610fdb9493929190612600565b60405180910390a39050610fef6001600855565b95945050505050565b61058333838361150f565b60006110406040518060c0016040528060608152602001600081526020016000815260200160608152602001600081526020016000151581525090565b600c8460405161105091906124b7565b90815260200160405180910390208360405161106c91906124b7565b9081526020016040518091039020549150600082116110bd5760405162461bcd60e51b815260206004820152600d60248201526c139195081b9bdd08199bdd5b99609a1b60448201526064016105ad565b6000828152600b602052604090819020815160c081019092528054829082906110e590612467565b80601f016020809104026020016040519081016040528092919081815260200182805461111190612467565b801561115e5780601f106111335761010080835404028352916020019161115e565b820191906000526020600020905b81548152906001019060200180831161114157829003601f168201915b50505050508152602001600182015481526020016002820154815260200160038201805461118b90612467565b80601f01602080910402602001604051908101604052809291908181526020018280546111b790612467565b80156112045780601f106111d957610100808354040283529160200191611204565b820191906000526020600020905b8154815290600101906020018083116111e757829003601f168201915b50505091835250506004820154602082015260059091015460ff161515604090910152919491935090915050565b61123d848484610587565b61061133858585856115ae565b60606104b7826116d9565b6001600160a01b03918216600090815260056020908152604080832093909416825291909152205460ff1690565b61128b611349565b6001600160a01b0381166112b557604051631e4fbdf760e01b8152600060048201526024016105ad565b6112be816113c8565b50565b60006001600160e01b03198216632483248360e11b14806104b757506104b7826117e2565b6000818152600260205260408120546001600160a01b0316806104b757604051637e27328960e01b8152600481018490526024016105ad565b6106448383836001611832565b6000611336611481565b611341848484611938565b949350505050565b6007546001600160a01b031633146106275760405163118cdaa760e01b81523360048201526024016105ad565b61137e611a31565b6009805460ff191690557f5db9ee0a495bf2e6ff9c91a7834c1ba4fdd244a5e8aa4e537bd38aeae4b073aa335b6040516001600160a01b03909116815260200160405180910390a1565b600780546001600160a01b038381166001600160a01b0319831681179093556040519116919082907f8be0079c531659141344cd1fd0a4f28419497f9722a3daafe3b4186f6b6457e090600090a35050565b611422611481565b6009805460ff191660011790557f62e78cea01bee320cd4e420270b5ea74000d11b0c9f74754ebdbfc544b05a2586113ab3390565b60026008540361147a57604051633ee5aeb560e01b815260040160405180910390fd5b6002600855565b60095460ff16156106275760405163d93c066560e01b815260040160405180910390fd5b610583828260405180602001604052806000815250611a54565b60008281526006602052604090206114d78282612540565b506040518281527ff8e1a15aba9398e019f0b49df1a4fde98ee17ae345cb5f6b5e2c27f5033e8ce79060200160405180910390a15050565b6001600160a01b03821661154157604051630b61174360e31b81526001600160a01b03831660048201526024016105ad565b6001600160a01b03838116600081815260056020908152604080832094871680845294825291829020805460ff191686151590811790915591519182527f17307eab39ab6107e8899845ad3d59bd9653f200f220920489ca2b5937696c31910160405180910390a3505050565b6001600160a01b0383163b156116d257604051630a85bd0160e11b81526001600160a01b0384169063150b7a02906115f090889088908790879060040161262f565b6020604051808303816000875af192505050801561162b575060408051601f3d908101601f191682019092526116289181019061266c565b60015b611694573d808015611659576040519150601f19603f3d011682016040523d82523d6000602084013e61165e565b606091505b50805160000361168c57604051633250574960e11b81526001600160a01b03851660048201526024016105ad565b805181602001fd5b6001600160e01b03198116630a85bd0160e11b146116d057604051633250574960e11b81526001600160a01b03851660048201526024016105ad565b505b5050505050565b60606116e4826112e6565b50600082815260066020526040812080546116fe90612467565b80601f016020809104026020016040519081016040528092919081815260200182805461172a90612467565b80156117775780601f1061174c57610100808354040283529160200191611777565b820191906000526020600020905b81548152906001019060200180831161175a57829003601f168201915b50505050509050600061179560408051602081019091526000815290565b905080516000036117a7575092915050565b8151156117d95780826040516020016117c1929190612689565b60405160208183030381529060405292505050919050565b61134184611a6c565b60006001600160e01b031982166380ac58cd60e01b148061181357506001600160e01b03198216635b5e139f60e01b145b806104b757506301ffc9a760e01b6001600160e01b03198316146104b7565b808061184657506001600160a01b03821615155b15611908576000611856846112e6565b90506001600160a01b038316158015906118825750826001600160a01b0316816001600160a01b031614155b801561189557506118938184611255565b155b156118be5760405163a9fbf51f60e01b81526001600160a01b03841660048201526024016105ad565b81156119065783856001600160a01b0316826001600160a01b03167f8c5be1e5ebec7d5bd14f71427d1e84f3dd0314c0f7b2291e5b200ac8c7c3b92560405160405180910390a45b505b5050600090815260046020526040902080546001600160a01b0319166001600160a01b0392909216919091179055565b6000828152600260205260408120546001600160a01b039081169083161561196557611965818486611ae1565b6001600160a01b038116156119a357611982600085600080611832565b6001600160a01b038116600090815260036020526040902080546000190190555b6001600160a01b038516156119d2576001600160a01b0385166000908152600360205260409020805460010190555b60008481526002602052604080822080546001600160a01b0319166001600160a01b0389811691821790925591518793918516917fddf252ad1be2c89b69c2b068fc378daa952ba7f163c4a11628f55a4df523b3ef91a4949350505050565b60095460ff1661062757604051638dfc202b60e01b815260040160405180910390fd5b611a5e8383611b45565b6106443360008585856115ae565b6060611a77826112e6565b506000611a8f60408051602081019091526000815290565b90506000815111611aaf5760405180602001604052806000815250611ada565b80611ab984611baa565b604051602001611aca929190612689565b6040516020818303038152906040525b9392505050565b611aec838383611c3d565b610644576001600160a01b038316611b1a57604051637e27328960e01b8152600481018290526024016105ad565b60405163177e802f60e01b81526001600160a01b0383166004820152602481018290526044016105ad565b6001600160a01b038216611b6f57604051633250574960e11b8152600060048201526024016105ad565b6000611b7d8383600061132c565b90506001600160a01b03811615610644576040516339e3563760e11b8152600060048201526024016105ad565b60606000611bb783611ca0565b600101905060008167ffffffffffffffff811115611bd757611bd7611f88565b6040519080825280601f01601f191660200182016040528015611c01576020820181803683370190505b5090508181016020015b600019016f181899199a1a9b1b9c1cb0b131b232b360811b600a86061a8153600a8504945084611c0b57509392505050565b60006001600160a01b038316158015906113415750826001600160a01b0316846001600160a01b03161480611c775750611c778484611255565b806113415750506000908152600460205260409020546001600160a01b03908116911614919050565b60008072184f03e93ff9f4daa797ed6e38ed64bf6a1f0160401b8310611cdf5772184f03e93ff9f4daa797ed6e38ed64bf6a1f0160401b830492506040015b6d04ee2d6d415b85acef81000000008310611d0b576d04ee2d6d415b85acef8100000000830492506020015b662386f26fc100008310611d2957662386f26fc10000830492506010015b6305f5e1008310611d41576305f5e100830492506008015b6127108310611d5557612710830492506004015b60648310611d67576064830492506002015b600a83106104b75760010192915050565b6001600160e01b0319811681146112be57600080fd5b600060208284031215611da057600080fd5b8135611ada81611d78565b60005b83811015611dc6578181015183820152602001611dae565b50506000910152565b60008151808452611de7816020860160208601611dab565b601f01601f19169290920160200192915050565b602081526000611ada6020830184611dcf565b600060208284031215611e2057600080fd5b5035919050565b80356001600160a01b0381168114611e3e57600080fd5b919050565b60008060408385031215611e5657600080fd5b611e5f83611e27565b946020939093013593505050565b600080600060608486031215611e8257600080fd5b611e8b84611e27565b9250611e9960208501611e27565b9150604084013590509250925092565b6000815160c08452611ebe60c0850182611dcf565b9050602083015160208501526040830151604085015260608301518482036060860152611eeb8282611dcf565b9150506080830151608085015260a0830151151560a08501528091505092915050565b602081526000611ada6020830184611ea9565b60c081526000611f3460c0830189611dcf565b8760208401528660408401528281036060840152611f528187611dcf565b6080840195909552505090151560a090910152949350505050565b600060208284031215611f7f57600080fd5b611ada82611e27565b634e487b7160e01b600052604160045260246000fd5b604051601f8201601f1916810167ffffffffffffffff81118282101715611fc757611fc7611f88565b604052919050565b600067ffffffffffffffff821115611fe957611fe9611f88565b5060051b60200190565b600067ffffffffffffffff83111561200d5761200d611f88565b612020601f8401601f1916602001611f9e565b905082815283838301111561203457600080fd5b828260208301376000602084830101529392505050565b600082601f83011261205c57600080fd5b611ada83833560208501611ff3565b80358015158114611e3e57600080fd5b600082601f83011261208c57600080fd5b813560206120a161209c83611fcf565b611f9e565b82815260059290921b840181019181810190868411156120c057600080fd5b8286015b848110156120e2576120d58161206b565b83529183019183016120c4565b509695505050505050565b6000806040838503121561210057600080fd5b823567ffffffffffffffff8082111561211857600080fd5b818501915085601f83011261212c57600080fd5b8135602061213c61209c83611fcf565b82815260059290921b8401810191818101908984111561215b57600080fd5b8286015b84811015612193578035868111156121775760008081fd5b6121858c86838b010161204b565b84525091830191830161215f565b50965050860135925050808211156121aa57600080fd5b506121b78582860161207b565b9150509250929050565b6000602082840312156121d357600080fd5b813567ffffffffffffffff8111156121ea57600080fd5b6113418482850161204b565b6020808252825182820181905260009190848201906040850190845b8181101561222e57835183529284019291840191600101612212565b50909695505050505050565b6000806040838503121561224d57600080fd5b823567ffffffffffffffff81111561226457600080fd5b6122708582860161204b565b92505061227f6020840161206b565b90509250929050565b600080600080600060a086880312156122a057600080fd5b853567ffffffffffffffff808211156122b857600080fd5b6122c489838a0161204b565b9650602088013595506040880135945060608801359150808211156122e857600080fd5b6122f489838a0161204b565b9350608088013591508082111561230a57600080fd5b506123178882890161204b565b9150509295509295909350565b6000806040838503121561233757600080fd5b61234083611e27565b915061227f6020840161206b565b6000806040838503121561236157600080fd5b823567ffffffffffffffff8082111561237957600080fd5b6123858683870161204b565b9350602085013591508082111561239b57600080fd5b506121b78582860161204b565b8281526040602082015260006113416040830184611ea9565b600080600080608085870312156123d757600080fd5b6123e085611e27565b93506123ee60208601611e27565b925060408501359150606085013567ffffffffffffffff81111561241157600080fd5b8501601f8101871361242257600080fd5b61243187823560208401611ff3565b91505092959194509250565b6000806040838503121561245057600080fd5b61245983611e27565b915061227f60208401611e27565b600181811c9082168061247b57607f821691505b60208210810361249b57634e487b7160e01b600052602260045260246000fd5b50919050565b634e487b7160e01b600052603260045260246000fd5b600082516124c9818460208701611dab565b9190910192915050565b6000600182016124f357634e487b7160e01b600052601160045260246000fd5b5060010190565b601f82111561064457600081815260208120601f850160051c810160208610156125215750805b601f850160051c820191505b818110156116d05782815560010161252d565b815167ffffffffffffffff81111561255a5761255a611f88565b61256e816125688454612467565b846124fa565b602080601f8311600181146125a3576000841561258b5750858301515b600019600386901b1c1916600185901b1785556116d0565b600085815260208120601f198616915b828110156125d2578886015182559484019460019091019084016125b3565b50858210156125f05787850151600019600388901b60f8161c191681555b5050505050600190811b01905550565b6080815260006126136080830187611dcf565b6020830195909552506040810192909252606090910152919050565b6001600160a01b038581168252841660208201526040810183905260806060820181905260009061266290830184611dcf565b9695505050505050565b60006020828403121561267e57600080fd5b8151611ada81611d78565b6000835161269b818460208801611dab565b8351908301906126af818360208801611dab565b0194935050505056fea264697066735822122011d4ac45720416fb98dc58dcf78f3980eb4e6da7796a8d0ff49a065922699aad64736f6c63430008140033",
  "linkReferences": {},
  "deployedLinkReferences": {}
}