{
  "_format": "hh-sol-artifact-1",
  "contractName": "CryptoGravesToken",
  "sourceName": "contracts/CryptoGravesToken.sol",
  "abi": [
    {
      "inputs": [],
      "stateMutability": "nonpayable",
      "type": "constructor"
    },
    {
      "inputs": [
        {
          "internalType": "address",
          "name": "spender",
          "type": "address"
        },
        {
          "internalType": "uint256",
          "name": "allowance",
          "type": "uint256"
        },
        {
          "internalType": "uint256",
          "name": "needed",
          "type": "uint256"
        }
      ],
      "name": "ERC20InsufficientAllowance",
      "type": "error"
    },
    {
      "inputs": [
        {
          "internalType": "address",
          "name": "sender",
          "type": "address"
        },
        {
          "internalType": "uint256",
          "name": "balance",
          "type": "uint256"
        },
        {
          "internalType": "uint256",
          "name": "needed",
          "type": "uint256"
        }
      ],
      "name": "ERC20InsufficientBalance",
      "type": "error"
    },
    {
      "inputs": [
        {
          "internalType": "address",
          "name": "approver",
          "type": "address"
        }
      ],
      "name": "ERC20InvalidApprover",
      "type": "error"
    },
    {
      "inputs": [
        {
          "internalType": "address",
          "name": "receiver",
          "type": "address"
        }
      ],
      "name": "ERC20InvalidReceiver",
      "type": "error"
    },
    {
      "inputs": [
        {
          "internalType": "address",
          "name": "sender",
          "type": "address"
        }
      ],
      "name": "ERC20InvalidSender",
      "type": "error"
    },
    {
      "inputs": [
        {
          "internalType": "address",
          "name": "spender",
          "type": "address"
        }
      ],
      "name": "ERC20InvalidSpender",
      "type": "error"
    },
    {
      "inputs": [],
      "name": "EnforcedPause",
      "type": "error"
    },
    {
      "inputs": [],
      "name": "ExpectedPause",
      "type": "error"
    },
    {
      "inputs": [
        {
          "internalType": "address",
          "name": "owner",
          "type": "address"
        }
      ],
      "name": "OwnableInvalidOwner",
      "type": "error"
    },
    {
      "inputs": [
        {
          "internalType": "address",
          "name": "account",
          "type": "address"
        }
      ],
      "name": "OwnableUnauthorizedAccount",
      "type": "error"
    },
    {
      "inputs": [],
      "name": "ReentrancyGuardReentrantCall",
      "type": "error"
    },
    {
      "anonymous": false,
      "inputs": [
        {
          "indexed": true,
          "internalType": "address",
          "name": "owner",
          "type": "address"
        },
        {
          "indexed": true,
          "internalType": "address",
          "name": "spender",
          "type": "address"
        },
        {
          "indexed": false,
          "internalType": "uint256",
          "name": "value",
          "type": "uint256"
        }
      ],
      "name": "Approval",
      "type": "event"
    },
    {
      "anonymous": false,
      "inputs": [
        {
          "indexed": true,
          "internalType": "address",
          "name": "previousOwner",
          "type": "address"
        },
        {
          "indexed": true,
          "internalType": "address",
          "name": "newOwner",
          "type": "address"
        }
      ],
      "name": "OwnershipTransferred",
      "type": "event"
    },
    {
      "anonymous": false,
      "inputs": [
        {
          "indexed": false,
          "internalType": "address",
          "name": "account",
          "type": "address"
        }
      ],
      "name": "Paused",
      "type": "event"
    },
    {
      "anonymous": false,
      "inputs": [
        {
          "indexed": true,
          "internalType": "uint256",
          "name": "tokenId",
          "type": "uint256"
        },
        {
          "indexed": true,
          "internalType": "string",
          "name": "walletAddress",
          "type": "string"
        },
        {
          "indexed": false,
          "internalType": "string",
          "name": "ticker",
          "type": "string"
        },
        {
          "indexed": false,
          "internalType": "uint256",
          "name": "lossRate",
          "type": "uint256"
        },
        {
          "indexed": false,
          "internalType": "uint256",
          "name": "lossAmount",
          "type": "uint256"
        },
        {
          "indexed": false,
          "internalType": "address",
          "name": "tokenContract",
          "type": "address"
        },
        {
          "indexed": false,
          "internalType": "string",
          "name": "name",
          "type": "string"
        },
        {
          "indexed": false,
          "internalType": "string",
          "name": "symbol",
          "type": "string"
        },
        {
          "indexed": false,
          "internalType": "uint256",
          "name": "totalSupply",
          "type": "uint256"
        }
      ],
      "name": "TokenCreated",
      "type": "event"
    },
    {
      "anonymous": false,
      "inputs": [
        {
          "indexed": true,
          "internalType": "address",
          "name": "from",
          "type": "address"
        },
        {
          "indexed": true,
          "internalType": "address",
          "name": "to",
          "type": "address"
        },
        {
          "indexed": false,
          "internalType": "uint256",
          "name": "value",
          "type": "uint256"
        }
      ],
      "name": "Transfer",
      "type": "event"
    },
    {
      "anonymous": false,
      "inputs": [
        {
          "indexed": false,
          "internalType": "address",
          "name": "account",
          "type": "address"
        }
      ],
      "name": "Unpaused",
      "type": "event"
    },
    {
      "anonymous": false,
      "inputs": [
        {
          "indexed": true,
          "internalType": "string",
          "name": "walletAddress",
          "type": "string"
        },
        {
          "indexed": false,
          "internalType": "bool",
          "name": "verified",
          "type": "bool"
        }
      ],
      "name": "WalletVerified",
      "type": "event"
    },
    {
      "inputs": [],
      "name": "MAX_LOSS_RATE",
      "outputs": [
        {
          "internalType": "uint256",
          "name": "",
          "type": "uint256"
        }
      ],
      "stateMutability": "view",
      "type": "function"
    },
    {
      "inputs": [],
      "name": "MAX_TOTAL_SUPPLY",
      "outputs": [
        {
          "internalType": "uint256",
          "name": "",
          "type": "uint256"
        }
      ],
      "stateMutability": "view",
      "type": "function"
    },
    {
      "inputs": [],
      "name": "MIN_LOSS_AMOUNT",
      "outputs": [
        {
          "internalType": "uint256",
          "name": "",
          "type": "uint256"
        }
      ],
      "stateMutability": "view",
      "type": "function"
    },
    {
      "inputs": [],
      "name": "MIN_LOSS_RATE",
      "outputs": [
        {
          "internalType": "uint256",
          "name": "",
          "type": "uint256"
        }
      ],
      "stateMutability": "view",
      "type": "function"
    },
    {
      "inputs": [
        {
          "internalType": "address",
          "name": "owner",
          "type": "address"
        },
        {
          "internalType": "address",
          "name": "spender",
          "type": "address"
        }
      ],
      "name": "allowance",
      "outputs": [
        {
          "internalType": "uint256",
          "name": "",
          "type": "uint256"
        }
      ],
      "stateMutability": "view",
      "type": "function"
    },
    {
      "inputs": [
        {
          "internalType": "address",
          "name": "spender",
          "type": "address"
        },
        {
          "internalType": "uint256",
          "name": "value",
          "type": "uint256"
        }
      ],
      "name": "approve",
      "outputs": [
        {
          "internalType": "bool",
          "name": "",
          "type": "bool"
        }
      ],
      "stateMutability": "nonpayable",
      "type": "function"
    },
    {
      "inputs": [
        {
          "internalType": "address",
          "name": "account",
          "type": "address"
        }
      ],
      "name": "balanceOf",
      "outputs": [
        {
          "internalType": "uint256",
          "name": "",
          "type": "uint256"
        }
      ],
      "stateMutability": "view",
      "type": "function"
    },
    {
      "inputs": [
        {
          "internalType": "string[]",
          "name": "walletAddresses",
          "type": "string[]"
        },
        {
          "internalType": "bool[]",
          "name": "verified",
          "type": "bool[]"
        }
      ],
      "name": "batchVerifyWallets",
      "outputs": [],
      "stateMutability": "nonpayable",
      "type": "function"
    },
    {
      "inputs": [
        {
          "internalType": "string",
          "name": "walletAddress",
          "type": "string"
        },
        {
          "internalType": "uint256",
          "name": "lossRate",
          "type": "uint256"
        },
        {
          "internalType": "uint256",
          "name": "lossAmount",
          "type": "uint256"
        },
        {
          "internalType": "string",
          "name": "ticker",
          "type": "string"
        },
        {
          "internalType": "string",
          "name": "name",
          "type": "string"
        },
        {
          "internalType": "string",
          "name": "symbol",
          "type": "string"
        },
        {
          "internalType": "uint256",
          "name": "totalSupply",
          "type": "uint256"
        }
      ],
      "name": "createMemeToken",
      "outputs": [
        {
          "internalType": "uint256",
          "name": "tokenId",
          "type": "uint256"
        },
        {
          "internalType": "address",
          "name": "tokenContract",
          "type": "address"
        }
      ],
      "stateMutability": "nonpayable",
      "type": "function"
    },
    {
      "inputs": [],
      "name": "decimals",
      "outputs": [
        {
          "internalType": "uint8",
          "name": "",
          "type": "uint8"
        }
      ],
      "stateMutability": "view",
      "type": "function"
    },
    {
      "inputs": [
        {
          "internalType": "string",
          "name": "walletAddress",
          "type": "string"
        },
        {
          "internalType": "string",
          "name": "ticker",
          "type": "string"
        }
      ],
      "name": "getTokenByWalletAndTicker",
      "outputs": [
        {
          "internalType": "uint256",
          "name": "tokenId",
          "type": "uint256"
        },
        {
          "components": [
            {
              "internalType": "string",
              "name": "walletAddress",
              "type": "string"
            },
            {
              "internalType": "uint256",
              "name": "lossRate",
              "type": "uint256"
            },
            {
              "internalType": "uint256",
              "name": "lossAmount",
              "type": "uint256"
            },
            {
              "internalType": "string",
              "name": "ticker",
              "type": "string"
            },
            {
              "internalType": "uint256",
              "name": "timestamp",
              "type": "uint256"
            },
            {
              "internalType": "string",
              "name": "name",
              "type": "string"
            },
            {
              "internalType": "string",
              "name": "symbol",
              "type": "string"
            },
            {
              "internalType": "uint256",
              "name": "totalSupply",
              "type": "uint256"
            },
            {
              "internalType": "bool",
              "name": "verified",
              "type": "bool"
            }
          ],
          "internalType": "struct CryptoGravesToken.TokenMetadata",
          "name": "metadata",
          "type": "tuple"
        },
        {
          "internalType": "address",
          "name": "tokenContract",
          "type": "address"
        }
      ],
      "stateMutability": "view",
      "type": "function"
    },
    {
      "inputs": [
        {
          "internalType": "uint256",
          "name": "tokenId",
          "type": "uint256"
        }
      ],
      "name": "getTokenMetadata",
      "outputs": [
        {
          "components": [
            {
              "internalType": "string",
              "name": "walletAddress",
              "type": "string"
            },
            {
              "internalType": "uint256",
              "name": "lossRate",
              "type": "uint256"
            },
            {
              "internalType": "uint256",
              "name": "lossAmount",
              "type": "uint256"
            },
            {
              "internalType": "string",
              "name": "ticker",
              "type": "string"
            },
            {
              "internalType": "uint256",
              "name": "timestamp",
              "type": "uint256"
            },
            {
              "internalType": "string",
              "name": "name",
              "type": "string"
            },
            {
              "internalType": "string",
              "name": "symbol",
              "type": "string"
            },
            {
              "internalType": "uint256",
              "name": "totalSupply",
              "type": "uint256"
            },
            {
              "internalType": "bool",
              "name": "verified",
              "type": "bool"
            }
          ],
          "internalType": "struct CryptoGravesToken.TokenMetadata",
          "name": "",
          "type": "tuple"
        }
      ],
      "stateMutability": "view",
      "type": "function"
    },
    {
      "inputs": [],
      "name": "name",
      "outputs": [
        {
          "internalType": "string",
          "name": "",
          "type": "string"
        }
      ],
      "stateMutability": "view",
      "type": "function"
    },
    {
      "inputs": [],
      "name": "owner",
      "outputs": [
        {
          "internalType": "address",
          "name": "",
          "type": "address"
        }
      ],
      "stateMutability": "view",
      "type": "function"
    },
    {
      "inputs": [],
      "name": "pause",
      "outputs": [],
      "stateMutability": "nonpayable",
      "type": "function"
    },
    {
      "inputs": [],
      "name": "paused",
      "outputs": [
        {
          "internalType": "bool",
          "name": "",
          "type": "bool"
        }
      ],
      "stateMutability": "view",
      "type": "function"
    },
    {
      "inputs": [],
      "name": "renounceOwnership",
      "outputs": [],
      "stateMutability": "nonpayable",
      "type": "function"
    },
    {
      "inputs": [],
      "name": "symbol",
      "outputs": [
        {
          "internalType": "string",
          "name": "",
          "type": "string"
        }
      ],
      "stateMutability": "view",
      "type": "function"
    },
    {
      "inputs": [
        {
          "internalType": "uint256",
          "name": "",
          "type": "uint256"
        }
      ],
      "name": "tokenIdToContract",
      "outputs": [
        {
          "internalType": "address",
          "name": "",
          "type": "address"
        }
      ],
      "stateMutability": "view",
      "type": "function"
    },
    {
      "inputs": [
        {
          "internalType": "uint256",
          "name": "",
          "type": "uint256"
        }
      ],
      "name": "tokenMetadata",
      "outputs": [
        {
          "internalType": "string",
          "name": "walletAddress",
          "type": "string"
        },
        {
          "internalType": "uint256",
          "name": "lossRate",
          "type": "uint256"
        },
        {
          "internalType": "uint256",
          "name": "lossAmount",
          "type": "uint256"
        },
        {
          "internalType": "string",
          "name": "ticker",
          "type": "string"
        },
        {
          "internalType": "uint256",
          "name": "timestamp",
          "type": "uint256"
        },
        {
          "internalType": "string",
          "name": "name",
          "type": "string"
        },
        {
          "internalType": "string",
          "name": "symbol",
          "type": "string"
        },
        {
          "internalType": "uint256",
          "name": "totalSupply",
          "type": "uint256"
        },
        {
          "internalType": "bool",
          "name": "verified",
          "type": "bool"
        }
      ],
      "stateMutability": "view",
      "type": "function"
    },
    {
      "inputs": [],
      "name": "totalSupply",
      "outputs": [
        {
          "internalType": "uint256",
          "name": "",
          "type": "uint256"
        }
      ],
      "stateMutability": "view",
      "type": "function"
    },
    {
      "inputs": [
        {
          "internalType": "address",
          "name": "to",
          "type": "address"
        },
        {
          "internalType": "uint256",
          "name": "value",
          "type": "uint256"
        }
      ],
      "name": "transfer",
      "outputs": [
        {
          "internalType": "bool",
          "name": "",
          "type": "bool"
        }
      ],
      "stateMutability": "nonpayable",
      "type": "function"
    },
    {
      "inputs": [
        {
          "internalType": "address",
          "name": "from",
          "type": "address"
        },
        {
          "internalType": "address",
          "name": "to",
          "type": "address"
        },
        {
          "internalType": "uint256",
          "name": "value",
          "type": "uint256"
        }
      ],
      "name": "transferFrom",
      "outputs": [
        {
          "internalType": "bool",
          "name": "",
          "type": "bool"
        }
      ],
      "stateMutability": "nonpayable",
      "type": "function"
    },
    {
      "inputs": [
        {
          "internalType": "address",
          "name": "newOwner",
          "type": "address"
        }
      ],
      "name": "transferOwnership",
      "outputs": [],
      "stateMutability": "nonpayable",
      "type": "function"
    },
    {
      "inputs": [],
      "name": "unpause",
      "outputs": [],
      "stateMutability": "nonpayable",
      "type": "function"
    },
    {
      "inputs": [
        {
          "internalType": "string",
          "name": "",
          "type": "string"
        }
      ],
      "name": "verifiedWallets",
      "outputs": [
        {
          "internalType": "bool",
          "name": "",
          "type": "bool"
        }
      ],
      "stateMutability": "view",
      "type": "function"
    },
    {
      "inputs": [
        {
          "internalType": "string",
          "name": "walletAddress",
          "type": "string"
        },
        {
          "internalType": "bool",
          "name": "verified",
          "type": "bool"
        }
      ],
      "name": "verifyWallet",
      "outputs": [],
      "stateMutability": "nonpayable",
      "type": "function"
    },
    {
      "inputs": [
        {
          "internalType": "string",
          "name": "",
          "type": "string"
        },
        {
          "internalType": "string",
          "name": "",
          "type": "string"
        }
      ],
      "name": "walletTickerToTokenId",
      "outputs": [
        {
          "internalType": "uint256",
          "name": "",
          "type": "uint256"
        }
      ],
      "stateMutability": "view",
      "type": "function"
    }
  ],
  "bytecode": "0x60806040523480156200001157600080fd5b50336040518060400160405280601b81526020017f43727970746f2047726176657320546f6b656e20466163746f727900000000008152506040518060400160405280600481526020016321a3aa2360e11b8152508160039081620000779190620001c6565b506004620000868282620001c6565b5050506001600160a01b038116620000b857604051631e4fbdf760e01b81526000600482015260240160405180910390fd5b620000c381620000cf565b50600160065562000292565b600580546001600160a01b038381166001600160a01b0319831681179093556040519116919082907f8be0079c531659141344cd1fd0a4f28419497f9722a3daafe3b4186f6b6457e090600090a35050565b634e487b7160e01b600052604160045260246000fd5b600181811c908216806200014c57607f821691505b6020821081036200016d57634e487b7160e01b600052602260045260246000fd5b50919050565b601f821115620001c157600081815260208120601f850160051c810160208610156200019c5750805b601f850160051c820191505b81811015620001bd57828155600101620001a8565b5050505b505050565b81516001600160401b03811115620001e257620001e262000121565b620001fa81620001f3845462000137565b8462000173565b602080601f831160018114620002325760008415620002195750858301515b600019600386901b1c1916600185901b178555620001bd565b600085815260208120601f198616915b82811015620002635788860151825594840194600190910190840162000242565b5085821015620002825787850151600019600388901b60f8161c191681555b5050505050600190811b01905550565b61371980620002a26000396000f3fe60806040523480156200001157600080fd5b5060043610620001e95760003560e01c806370a08231116200010d578063a9059cbb11620000a3578063dd62ed3e116200007a578063dd62ed3e1462000446578063e57483421462000482578063f2fde38b14620004cd578063f794f2c714620004e457600080fd5b8063a9059cbb14620003f4578063cc6f9cd7146200040b578063ceb83ef3146200041557600080fd5b80638456cb5911620000e45780638456cb5914620003b75780638da5cb5b14620003c157806395d89b4114620003d35780639e4a1f8314620003dd57600080fd5b806370a08231146200036a578063715018a6146200039657806376a3e74714620003a057600080fd5b80633f4ba83a11620001835780635c975abb116200015a5780635c975abb14620002e25780636031680114620002ee57806368c74c8414620003145780636914db60146200033c57600080fd5b80633f4ba83a14620002c35780634ee0651914620002cf5780635855ed4014620002d857600080fd5b806318160ddd11620001c457806318160ddd146200027d57806323b872dd1462000290578063313ce56714620002a757806333039d3d14620002b757600080fd5b806306fdde0314620001ee578063095ea7b3146200021057806313ef64871462000238575b600080fd5b620001f862000519565b60405162000207919062001d08565b60405180910390f35b620002276200022136600462001d41565b620005b3565b604051901515815260200162000207565b620002646200024936600462001d6e565b600b602052600090815260409020546001600160a01b031681565b6040516001600160a01b03909116815260200162000207565b6002545b60405190815260200162000207565b62000227620002a136600462001d88565b620005cf565b6040516012815260200162000207565b62000281633b9aca0081565b620002cd620005f7565b005b62000281606481565b6200028161271081565b60075460ff1662000227565b62000305620002ff36600462001d6e565b6200060d565b60405162000207919062001e7f565b6200032b6200032536600462001f55565b62000932565b604051620002079392919062001fc0565b620003536200034d36600462001d6e565b62000ca5565b604051620002079998979695949392919062001ff3565b620002816200037b3660046200207c565b6001600160a01b031660009081526020819052604090205490565b620002cd62000f2f565b620002cd620003b13660046200214e565b62000f45565b620002cd620010bb565b6005546001600160a01b031662000264565b620001f8620010cf565b620002cd620003ee36600462002227565b620010e0565b620002276200040536600462001d41565b6200116b565b620002816101f481565b62000227620004263660046200227b565b8051602081830181018051600c8252928201919093012091525460ff1681565b6200028162000457366004620022bc565b6001600160a01b03918216600090815260016020908152604080832093909416825291909152205490565b620002816200049336600462001f55565b8151602081840181018051600a82529282019482019490942091909352815180830184018051928152908401929093019190912091525481565b620002cd620004de3660046200207c565b6200117b565b620004fb620004f5366004620022eb565b620011bf565b604080519283526001600160a01b0390911660208301520162000207565b6060600380546200052a90620023c2565b80601f01602080910402602001604051908101604052809291908181526020018280546200055890620023c2565b8015620005a95780601f106200057d57610100808354040283529160200191620005a9565b820191906000526020600020905b8154815290600101906020018083116200058b57829003601f168201915b5050505050905090565b600033620005c3818585620017b2565b60019150505b92915050565b600033620005df858285620017c1565b620005ec85858562001845565b506001949350505050565b62000601620018aa565b6200060b620018d9565b565b6200061762001c58565b6000821180156200062a57506008548211155b620006735760405162461bcd60e51b8152602060048201526014602482015273151bdad95b88191bd95cc81b9bdd08195e1a5cdd60621b60448201526064015b60405180910390fd5b60008281526009602052604090819020815161012081019092528054829082906200069e90620023c2565b80601f0160208091040260200160405190810160405280929190818152602001828054620006cc90620023c2565b80156200071d5780601f10620006f1576101008083540402835291602001916200071d565b820191906000526020600020905b815481529060010190602001808311620006ff57829003601f168201915b5050505050815260200160018201548152602001600282015481526020016003820180546200074c90620023c2565b80601f01602080910402602001604051908101604052809291908181526020018280546200077a90620023c2565b8015620007cb5780601f106200079f57610100808354040283529160200191620007cb565b820191906000526020600020905b815481529060010190602001808311620007ad57829003601f168201915b5050505050815260200160048201548152602001600582018054620007f090620023c2565b80601f01602080910402602001604051908101604052809291908181526020018280546200081e90620023c2565b80156200086f5780601f1062000843576101008083540402835291602001916200086f565b820191906000526020600020905b8154815290600101906020018083116200085157829003601f168201915b505050505081526020016006820180546200088a90620023c2565b80601f0160208091040260200160405190810160405280929190818152602001828054620008b890620023c2565b8015620009095780601f10620008dd5761010080835404028352916020019162000909565b820191906000526020600020905b815481529060010190602001808311620008eb57829003601f168201915b50505091835250506007820154602082015260089091015460ff16151560409091015292915050565b60006200093e62001c58565b6000600a85604051620009529190620023fe565b908152602001604051809103902084604051620009709190620023fe565b908152602001604051809103902054925060008311620009c55760405162461bcd60e51b815260206004820152600f60248201526e151bdad95b881b9bdd08199bdd5b99608a1b60448201526064016200066a565b6000838152600960205260409081902081516101208101909252805482908290620009f090620023c2565b80601f016020809104026020016040519081016040528092919081815260200182805462000a1e90620023c2565b801562000a6f5780601f1062000a435761010080835404028352916020019162000a6f565b820191906000526020600020905b81548152906001019060200180831162000a5157829003601f168201915b50505050508152602001600182015481526020016002820154815260200160038201805462000a9e90620023c2565b80601f016020809104026020016040519081016040528092919081815260200182805462000acc90620023c2565b801562000b1d5780601f1062000af15761010080835404028352916020019162000b1d565b820191906000526020600020905b81548152906001019060200180831162000aff57829003601f168201915b505050505081526020016004820154815260200160058201805462000b4290620023c2565b80601f016020809104026020016040519081016040528092919081815260200182805462000b7090620023c2565b801562000bc15780601f1062000b955761010080835404028352916020019162000bc1565b820191906000526020600020905b81548152906001019060200180831162000ba357829003601f168201915b5050505050815260200160068201805462000bdc90620023c2565b80601f016020809104026020016040519081016040528092919081815260200182805462000c0a90620023c2565b801562000c5b5780601f1062000c2f5761010080835404028352916020019162000c5b565b820191906000526020600020905b81548152906001019060200180831162000c3d57829003601f168201915b5050509183525050600782015460208083019190915260089092015460ff1615156040918201526000868152600b90925290205493969095506001600160a01b0390931693505050565b60096020526000908152604090208054819062000cc290620023c2565b80601f016020809104026020016040519081016040528092919081815260200182805462000cf090620023c2565b801562000d415780601f1062000d155761010080835404028352916020019162000d41565b820191906000526020600020905b81548152906001019060200180831162000d2357829003601f168201915b50505050509080600101549080600201549080600301805462000d6490620023c2565b80601f016020809104026020016040519081016040528092919081815260200182805462000d9290620023c2565b801562000de35780601f1062000db75761010080835404028352916020019162000de3565b820191906000526020600020905b81548152906001019060200180831162000dc557829003601f168201915b50505050509080600401549080600501805462000e0090620023c2565b80601f016020809104026020016040519081016040528092919081815260200182805462000e2e90620023c2565b801562000e7f5780601f1062000e535761010080835404028352916020019162000e7f565b820191906000526020600020905b81548152906001019060200180831162000e6157829003601f168201915b50505050509080600601805462000e9690620023c2565b80601f016020809104026020016040519081016040528092919081815260200182805462000ec490620023c2565b801562000f155780601f1062000ee95761010080835404028352916020019162000f15565b820191906000526020600020905b81548152906001019060200180831162000ef757829003601f168201915b50505050600783015460089093015491929160ff16905089565b62000f39620018aa565b6200060b60006200192d565b62000f4f620018aa565b805182511462000f9b5760405162461bcd60e51b8152602060048201526016602482015275082e4e4c2f2e640d8cadccee8d040dad2e6dac2e8c6d60531b60448201526064016200066a565b60005b8251811015620010b65781818151811062000fbd5762000fbd6200241c565b6020026020010151600c84838151811062000fdc5762000fdc6200241c565b602002602001015160405162000ff39190620023fe565b908152604051908190036020019020805491151560ff1990921691909117905582518390829081106200102a576200102a6200241c565b6020026020010151604051620010419190620023fe565b60405180910390207fa7ea1ac8e85b0c4072bbfd22356f34575508370445f6ba87c90a03972f8f6cbb8383815181106200107f576200107f6200241c565b602002602001015160405162001099911515815260200190565b60405180910390a280620010ad8162002448565b91505062000f9e565b505050565b620010c5620018aa565b6200060b6200197f565b6060600480546200052a90620023c2565b620010ea620018aa565b80600c83604051620010fd9190620023fe565b908152604051908190036020018120805492151560ff19909316929092179091556200112b908390620023fe565b6040519081900381208215158252907fa7ea1ac8e85b0c4072bbfd22356f34575508370445f6ba87c90a03972f8f6cbb9060200160405180910390a25050565b600033620005c381858562001845565b62001185620018aa565b6001600160a01b038116620011b157604051631e4fbdf760e01b8152600060048201526024016200066a565b620011bc816200192d565b50565b600080620011cc620019bf565b620011d6620019ea565b600c89604051620011e89190620023fe565b9081526040519081900360200190205460ff166200123f5760405162461bcd60e51b815260206004820152601360248201527215d85b1b195d081b9bdd081d995c9a599a5959606a1b60448201526064016200066a565b6101f4881015620012875760405162461bcd60e51b81526020600482015260116024820152704c6f7373207261746520746f6f206c6f7760781b60448201526064016200066a565b612710881115620012d05760405162461bcd60e51b8152602060048201526012602482015271098dee6e640e4c2e8ca40e8dede40d0d2ced60731b60448201526064016200066a565b6064871015620013195760405162461bcd60e51b81526020600482015260136024820152724c6f737320616d6f756e7420746f6f206c6f7760681b60448201526064016200066a565b6000831180156200132e5750633b9aca008311155b620013735760405162461bcd60e51b8152602060048201526014602482015273496e76616c696420746f74616c20737570706c7960601b60448201526064016200066a565b600a89604051620013859190620023fe565b908152602001604051809103902086604051620013a39190620023fe565b9081526020016040518091039020546000146200141b5760405162461bcd60e51b815260206004820152602f60248201527f546f6b656e20616c72656164792065786973747320666f72207468697320776160448201526e363632ba1030b732103a34b1b5b2b960891b60648201526084016200066a565b600086511180156200142f5750600a865111155b620014755760405162461bcd60e51b8152602060048201526015602482015274092dcecc2d8d2c840e8d2c6d6cae440d8cadccee8d605b1b60448201526064016200066a565b600085511180156200148957506032855111155b620014cd5760405162461bcd60e51b8152602060048201526013602482015272092dcecc2d8d2c840dcc2daca40d8cadccee8d606b1b60448201526064016200066a565b60008451118015620014e15750600a845111155b620015275760405162461bcd60e51b8152602060048201526015602482015274092dcecc2d8d2c840e6f2dac4ded840d8cadccee8d605b1b60448201526064016200066a565b8851602a146200157a5760405162461bcd60e51b815260206004820152601d60248201527f496e76616c69642077616c6c65742061646472657373206c656e67746800000060448201526064016200066a565b600880549060006200158c8362002448565b91905055506008549150600085858533604051620015aa9062001ca6565b620015b9949392919062002464565b604051809103906000f080158015620015d6573d6000803e3d6000fd5b5090508091506040518061012001604052808b81526020018a81526020018981526020018881526020014281526020018781526020018681526020018581526020016001151581525060096000858152602001908152602001600020600082015181600001908162001649919062002501565b5060208201516001820155604082015160028201556060820151600382019062001674908262002501565b506080820151600482015560a0820151600582019062001695908262002501565b5060c08201516006820190620016ac908262002501565b5060e08201516007820155610100909101516008909101805460ff19169115159190911790556040518390600a90620016e7908d90620023fe565b908152602001604051809103902088604051620017059190620023fe565b9081526040805160209281900383018120939093556000868152600b909252902080546001600160a01b0319166001600160a01b0385161790556200174c908b90620023fe565b6040518091039020837fe677d5b486a5a5d5147d4ff831f9f7879df9270c1a8b8d8c551070ac19b2e854898c8c878c8c8c604051620017929796959493929190620025ce565b60405180910390a350620017a66001600655565b97509795505050505050565b620010b6838383600162001a0f565b6001600160a01b038381166000908152600160209081526040808320938616835292905220546000198110156200183f57818110156200182e57604051637dc7a0d960e11b81526001600160a01b038416600482015260248101829052604481018390526064016200066a565b6200183f8484848403600062001a0f565b50505050565b6001600160a01b0383166200187157604051634b637e8f60e11b8152600060048201526024016200066a565b6001600160a01b0382166200189d5760405163ec442f0560e01b8152600060048201526024016200066a565b620010b683838362001aea565b6005546001600160a01b031633146200060b5760405163118cdaa760e01b81523360048201526024016200066a565b620018e362001b01565b6007805460ff191690557f5db9ee0a495bf2e6ff9c91a7834c1ba4fdd244a5e8aa4e537bd38aeae4b073aa335b6040516001600160a01b03909116815260200160405180910390a1565b600580546001600160a01b038381166001600160a01b0319831681179093556040519116919082907f8be0079c531659141344cd1fd0a4f28419497f9722a3daafe3b4186f6b6457e090600090a35050565b62001989620019ea565b6007805460ff191660011790557f62e78cea01bee320cd4e420270b5ea74000d11b0c9f74754ebdbfc544b05a258620019103390565b600260065403620019e357604051633ee5aeb560e01b815260040160405180910390fd5b6002600655565b60075460ff16156200060b5760405163d93c066560e01b815260040160405180910390fd5b6001600160a01b03841662001a3b5760405163e602df0560e01b8152600060048201526024016200066a565b6001600160a01b03831662001a6757604051634a1406b160e11b8152600060048201526024016200066a565b6001600160a01b03808516600090815260016020908152604080832093871683529290522082905580156200183f57826001600160a01b0316846001600160a01b03167f8c5be1e5ebec7d5bd14f71427d1e84f3dd0314c0f7b2291e5b200ac8c7c3b9258460405162001adc91815260200190565b60405180910390a350505050565b62001af4620019ea565b620010b683838362001b25565b60075460ff166200060b57604051638dfc202b60e01b815260040160405180910390fd5b6001600160a01b03831662001b5457806002600082825462001b4891906200263f565b9091555062001bc89050565b6001600160a01b0383166000908152602081905260409020548181101562001ba95760405163391434e360e21b81526001600160a01b038516600482015260248101829052604481018390526064016200066a565b6001600160a01b03841660009081526020819052604090209082900390555b6001600160a01b03821662001be65760028054829003905562001c05565b6001600160a01b03821660009081526020819052604090208054820190555b816001600160a01b0316836001600160a01b03167fddf252ad1be2c89b69c2b068fc378daa952ba7f163c4a11628f55a4df523b3ef8360405162001c4b91815260200190565b60405180910390a3505050565b60405180610120016040528060608152602001600081526020016000815260200160608152602001600081526020016060815260200160608152602001600081526020016000151581525090565b61108e806200265683390190565b60005b8381101562001cd157818101518382015260200162001cb7565b50506000910152565b6000815180845262001cf481602086016020860162001cb4565b601f01601f19169290920160200192915050565b60208152600062001d1d602083018462001cda565b9392505050565b80356001600160a01b038116811462001d3c57600080fd5b919050565b6000806040838503121562001d5557600080fd5b62001d608362001d24565b946020939093013593505050565b60006020828403121562001d8157600080fd5b5035919050565b60008060006060848603121562001d9e57600080fd5b62001da98462001d24565b925062001db96020850162001d24565b9150604084013590509250925092565b6000610120825181855262001de18286018262001cda565b91505060208301516020850152604083015160408501526060830151848203606086015262001e11828262001cda565b9150506080830151608085015260a083015184820360a086015262001e37828262001cda565b91505060c083015184820360c086015262001e53828262001cda565b91505060e083015160e08501526101008084015162001e758287018215159052565b5090949350505050565b60208152600062001d1d602083018462001dc9565b634e487b7160e01b600052604160045260246000fd5b604051601f8201601f1916810167ffffffffffffffff8111828210171562001ed65762001ed662001e94565b604052919050565b600082601f83011262001ef057600080fd5b813567ffffffffffffffff81111562001f0d5762001f0d62001e94565b62001f22601f8201601f191660200162001eaa565b81815284602083860101111562001f3857600080fd5b816020850160208301376000918101602001919091529392505050565b6000806040838503121562001f6957600080fd5b823567ffffffffffffffff8082111562001f8257600080fd5b62001f908683870162001ede565b9350602085013591508082111562001fa757600080fd5b5062001fb68582860162001ede565b9150509250929050565b83815260606020820152600062001fdb606083018562001dc9565b905060018060a01b0383166040830152949350505050565b6000610120808352620020098184018d62001cda565b90508a602084015289604084015282810360608401526200202b818a62001cda565b905087608084015282810360a084015262002047818862001cda565b905082810360c08401526200205d818762001cda565b60e0840195909552505090151561010090910152979650505050505050565b6000602082840312156200208f57600080fd5b62001d1d8262001d24565b600067ffffffffffffffff821115620020b757620020b762001e94565b5060051b60200190565b8035801515811462001d3c57600080fd5b600082601f830112620020e457600080fd5b81356020620020fd620020f7836200209a565b62001eaa565b82815260059290921b840181019181810190868411156200211d57600080fd5b8286015b8481101562002143576200213581620020c1565b835291830191830162002121565b509695505050505050565b600080604083850312156200216257600080fd5b823567ffffffffffffffff808211156200217b57600080fd5b818501915085601f8301126200219057600080fd5b81356020620021a3620020f7836200209a565b82815260059290921b84018101918181019089841115620021c357600080fd5b8286015b848110156200220057803586811115620021e15760008081fd5b620021f18c86838b010162001ede565b845250918301918301620021c7565b50965050860135925050808211156200221857600080fd5b5062001fb685828601620020d2565b600080604083850312156200223b57600080fd5b823567ffffffffffffffff8111156200225357600080fd5b620022618582860162001ede565b9250506200227260208401620020c1565b90509250929050565b6000602082840312156200228e57600080fd5b813567ffffffffffffffff811115620022a657600080fd5b620022b48482850162001ede565b949350505050565b60008060408385031215620022d057600080fd5b620022db8362001d24565b9150620022726020840162001d24565b600080600080600080600060e0888a0312156200230757600080fd5b873567ffffffffffffffff808211156200232057600080fd5b6200232e8b838c0162001ede565b985060208a0135975060408a0135965060608a01359150808211156200235357600080fd5b620023618b838c0162001ede565b955060808a01359150808211156200237857600080fd5b620023868b838c0162001ede565b945060a08a01359150808211156200239d57600080fd5b50620023ac8a828b0162001ede565b92505060c0880135905092959891949750929550565b600181811c90821680620023d757607f821691505b602082108103620023f857634e487b7160e01b600052602260045260246000fd5b50919050565b600082516200241281846020870162001cb4565b9190910192915050565b634e487b7160e01b600052603260045260246000fd5b634e487b7160e01b600052601160045260246000fd5b6000600182016200245d576200245d62002432565b5060010190565b60808152600062002479608083018762001cda565b82810360208401526200248d818762001cda565b604084019590955250506001600160a01b039190911660609091015292915050565b601f821115620010b657600081815260208120601f850160051c81016020861015620024d85750805b601f850160051c820191505b81811015620024f957828155600101620024e4565b505050505050565b815167ffffffffffffffff8111156200251e576200251e62001e94565b62002536816200252f8454620023c2565b84620024af565b602080601f8311600181146200256e5760008415620025555750858301515b600019600386901b1c1916600185901b178555620024f9565b600085815260208120601f198616915b828110156200259f578886015182559484019460019091019084016200257e565b5085821015620025be5787850151600019600388901b60f8161c191681555b5050505050600190811b01905550565b60e081526000620025e360e083018a62001cda565b60208301899052604083018890526001600160a01b0387166060840152828103608084015262002614818762001cda565b905082810360a08401526200262a818662001cda565b9150508260c083015298975050505050505050565b80820180821115620005c957620005c96200243256fe60806040523480156200001157600080fd5b506040516200108e3803806200108e83398101604081905262000034916200034f565b808484600362000045838262000473565b50600462000054828262000473565b5050506001600160a01b0381166200008757604051631e4fbdf760e01b8152600060048201526024015b60405180910390fd5b6200009281620000c7565b506001600655620000bd81620000ab6012600a62000654565b620000b790856200066c565b62000119565b505050506200069c565b600580546001600160a01b038381166001600160a01b0319831681179093556040519116919082907f8be0079c531659141344cd1fd0a4f28419497f9722a3daafe3b4186f6b6457e090600090a35050565b6001600160a01b038216620001455760405163ec442f0560e01b8152600060048201526024016200007e565b620001536000838362000157565b5050565b6001600160a01b038316620001865780600260008282546200017a919062000686565b90915550620001fa9050565b6001600160a01b03831660009081526020819052604090205481811015620001db5760405163391434e360e21b81526001600160a01b038516600482015260248101829052604481018390526064016200007e565b6001600160a01b03841660009081526020819052604090209082900390555b6001600160a01b038216620002185760028054829003905562000237565b6001600160a01b03821660009081526020819052604090208054820190555b816001600160a01b0316836001600160a01b03167fddf252ad1be2c89b69c2b068fc378daa952ba7f163c4a11628f55a4df523b3ef836040516200027d91815260200190565b60405180910390a3505050565b634e487b7160e01b600052604160045260246000fd5b600082601f830112620002b257600080fd5b81516001600160401b0380821115620002cf57620002cf6200028a565b604051601f8301601f19908116603f01168101908282118183101715620002fa57620002fa6200028a565b816040528381526020925086838588010111156200031757600080fd5b600091505b838210156200033b57858201830151818301840152908201906200031c565b600093810190920192909252949350505050565b600080600080608085870312156200036657600080fd5b84516001600160401b03808211156200037e57600080fd5b6200038c88838901620002a0565b95506020870151915080821115620003a357600080fd5b50620003b287828801620002a0565b60408701516060880151919550935090506001600160a01b0381168114620003d957600080fd5b939692955090935050565b600181811c90821680620003f957607f821691505b6020821081036200041a57634e487b7160e01b600052602260045260246000fd5b50919050565b601f8211156200046e57600081815260208120601f850160051c81016020861015620004495750805b601f850160051c820191505b818110156200046a5782815560010162000455565b5050505b505050565b81516001600160401b038111156200048f576200048f6200028a565b620004a781620004a08454620003e4565b8462000420565b602080601f831160018114620004df5760008415620004c65750858301515b600019600386901b1c1916600185901b1785556200046a565b600085815260208120601f198616915b828110156200051057888601518255948401946001909101908401620004ef565b50858210156200052f5787850151600019600388901b60f8161c191681555b5050505050600190811b01905550565b634e487b7160e01b600052601160045260246000fd5b600181815b80851115620005965781600019048211156200057a576200057a6200053f565b808516156200058857918102915b93841c93908002906200055a565b509250929050565b600082620005af575060016200064e565b81620005be575060006200064e565b8160018114620005d75760028114620005e25762000602565b60019150506200064e565b60ff841115620005f657620005f66200053f565b50506001821b6200064e565b5060208310610133831016604e8410600b841016171562000627575081810a6200064e565b62000633838362000555565b80600019048211156200064a576200064a6200053f565b0290505b92915050565b60006200066560ff8416836200059e565b9392505050565b80820281158282048414176200064e576200064e6200053f565b808201808211156200064e576200064e6200053f565b6109e280620006ac6000396000f3fe608060405234801561001057600080fd5b50600436106100f55760003560e01c806370a082311161009757806395d89b411161006657806395d89b41146101d8578063a9059cbb146101e0578063dd62ed3e146101f3578063f2fde38b1461022c57600080fd5b806370a0823114610184578063715018a6146101ad5780638456cb59146101b55780638da5cb5b146101bd57600080fd5b806323b872dd116100d357806323b872dd1461014d578063313ce567146101605780633f4ba83a1461016f5780635c975abb1461017957600080fd5b806306fdde03146100fa578063095ea7b31461011857806318160ddd1461013b575b600080fd5b61010261023f565b60405161010f9190610833565b60405180910390f35b61012b61012636600461089d565b6102d1565b604051901515815260200161010f565b6002545b60405190815260200161010f565b61012b61015b3660046108c7565b6102ee565b6040516012815260200161010f565b61017761030b565b005b60075460ff1661012b565b61013f610192366004610903565b6001600160a01b031660009081526020819052604090205490565b61017761031d565b61017761032f565b6005546040516001600160a01b03909116815260200161010f565b61010261033f565b61012b6101ee36600461089d565b61034e565b61013f61020136600461091e565b6001600160a01b03918216600090815260016020908152604080832093909416825291909152205490565b61017761023a366004610903565b610362565b60606003805461024e90610951565b80601f016020809104026020016040519081016040528092919081815260200182805461027a90610951565b80156102c75780601f1061029c576101008083540402835291602001916102c7565b820191906000526020600020905b8154815290600101906020018083116102aa57829003601f168201915b5050505050905090565b60006102db6103a5565b6102e583836103c9565b90505b92915050565b60006102f86103a5565b6103038484846103e1565b949350505050565b610313610405565b61031b610432565b565b610325610405565b61031b6000610484565b610337610405565b61031b6104d6565b60606004805461024e90610951565b60006103586103a5565b6102e58383610513565b61036a610405565b6001600160a01b03811661039957604051631e4fbdf760e01b8152600060048201526024015b60405180910390fd5b6103a281610484565b50565b60075460ff161561031b5760405163d93c066560e01b815260040160405180910390fd5b6000336103d7818585610521565b5060019392505050565b6000336103ef858285610533565b6103fa8585856105b2565b506001949350505050565b6005546001600160a01b0316331461031b5760405163118cdaa760e01b8152336004820152602401610390565b61043a610611565b6007805460ff191690557f5db9ee0a495bf2e6ff9c91a7834c1ba4fdd244a5e8aa4e537bd38aeae4b073aa335b6040516001600160a01b03909116815260200160405180910390a1565b600580546001600160a01b038381166001600160a01b0319831681179093556040519116919082907f8be0079c531659141344cd1fd0a4f28419497f9722a3daafe3b4186f6b6457e090600090a35050565b6104de6103a5565b6007805460ff191660011790557f62e78cea01bee320cd4e420270b5ea74000d11b0c9f74754ebdbfc544b05a2586104673390565b6000336103d78185856105b2565b61052e8383836001610634565b505050565b6001600160a01b038381166000908152600160209081526040808320938616835292905220546000198110156105ac578181101561059d57604051637dc7a0d960e11b81526001600160a01b03841660048201526024810182905260448101839052606401610390565b6105ac84848484036000610634565b50505050565b6001600160a01b0383166105dc57604051634b637e8f60e11b815260006004820152602401610390565b6001600160a01b0382166106065760405163ec442f0560e01b815260006004820152602401610390565b61052e838383610709565b60075460ff1661031b57604051638dfc202b60e01b815260040160405180910390fd5b6001600160a01b03841661065e5760405163e602df0560e01b815260006004820152602401610390565b6001600160a01b03831661068857604051634a1406b160e11b815260006004820152602401610390565b6001600160a01b03808516600090815260016020908152604080832093871683529290522082905580156105ac57826001600160a01b0316846001600160a01b03167f8c5be1e5ebec7d5bd14f71427d1e84f3dd0314c0f7b2291e5b200ac8c7c3b925846040516106fb91815260200190565b60405180910390a350505050565b6001600160a01b038316610734578060026000828254610729919061098b565b909155506107a69050565b6001600160a01b038316600090815260208190526040902054818110156107875760405163391434e360e21b81526001600160a01b03851660048201526024810182905260448101839052606401610390565b6001600160a01b03841660009081526020819052604090209082900390555b6001600160a01b0382166107c2576002805482900390556107e1565b6001600160a01b03821660009081526020819052604090208054820190555b816001600160a01b0316836001600160a01b03167fddf252ad1be2c89b69c2b068fc378daa952ba7f163c4a11628f55a4df523b3ef8360405161082691815260200190565b60405180910390a3505050565b600060208083528351808285015260005b8181101561086057858101830151858201604001528201610844565b506000604082860101526040601f19601f8301168501019250505092915050565b80356001600160a01b038116811461089857600080fd5b919050565b600080604083850312156108b057600080fd5b6108b983610881565b946020939093013593505050565b6000806000606084860312156108dc57600080fd5b6108e584610881565b92506108f360208501610881565b9150604084013590509250925092565b60006020828403121561091557600080fd5b6102e582610881565b6000806040838503121561093157600080fd5b61093a83610881565b915061094860208401610881565b90509250929050565b600181811c9082168061096557607f821691505b60208210810361098557634e487b7160e01b600052602260045260246000fd5b50919050565b808201808211156102e857634e487b7160e01b600052601160045260246000fdfea2646970667358221220ad57d944a6d8d7f3bcbae1ef1b3d355382d344171e668efd7dc966e05f388c7164736f6c63430008140033a26469706673582212203ba10699a298684544d04e68888d28db65168e418ca9c6780c5340d23108fa3364736f6c63430008140033",
  "linkReferences": {},
  "deployedLinkReferences": {}
}