{
  "_format": "hh-sol-artifact-1",
  "contractName": "MemeToken",
  "sourceName": "contracts/CryptoGravesToken.sol",
  "abi": [
    {
      "inputs": [
        {
          "internalType": "string",
          "name": "name",
          "type": "string"
        },
        {
          "internalType": "string",
          "name": "symbol",
          "type": "string"
        },
        {
          "internalType": "uint256",
          "name": "initialSupply",
          "type": "uint256"
        },
        {
          "internalType": "address",
          "name": "initialOwner",
          "type": "address"
        }
      ],
      "stateMutability": "nonpayable",
      "type": "constructor"
    },
    {
      "inputs": [
        {
          "internalType": "address",
          "name": "spender",
          "type": "address"
        },
        {
          "internalType": "uint256",
          "name": "allowance",
          "type": "uint256"
        },
        {
          "internalType": "uint256",
          "name": "needed",
          "type": "uint256"
        }
      ],
      "name": "ERC20InsufficientAllowance",
      "type": "error"
    },
    {
      "inputs": [
        {
          "internalType": "address",
          "name": "sender",
          "type": "address"
        },
        {
          "internalType": "uint256",
          "name": "balance",
          "type": "uint256"
        },
        {
          "internalType": "uint256",
          "name": "needed",
          "type": "uint256"
        }
      ],
      "name": "ERC20InsufficientBalance",
      "type": "error"
    },
    {
      "inputs": [
        {
          "internalType": "address",
          "name": "approver",
          "type": "address"
        }
      ],
      "name": "ERC20InvalidApprover",
      "type": "error"
    },
    {
      "inputs": [
        {
          "internalType": "address",
          "name": "receiver",
          "type": "address"
        }
      ],
      "name": "ERC20InvalidReceiver",
      "type": "error"
    },
    {
      "inputs": [
        {
          "internalType": "address",
          "name": "sender",
          "type": "address"
        }
      ],
      "name": "ERC20InvalidSender",
      "type": "error"
    },
    {
      "inputs": [
        {
          "internalType": "address",
          "name": "spender",
          "type": "address"
        }
      ],
      "name": "ERC20InvalidSpender",
      "type": "error"
    },
    {
      "inputs": [],
      "name": "EnforcedPause",
      "type": "error"
    },
    {
      "inputs": [],
      "name": "ExpectedPause",
      "type": "error"
    },
    {
      "inputs": [
        {
          "internalType": "address",
          "name": "owner",
          "type": "address"
        }
      ],
      "name": "OwnableInvalidOwner",
      "type": "error"
    },
    {
      "inputs": [
        {
          "internalType": "address",
          "name": "account",
          "type": "address"
        }
      ],
      "name": "OwnableUnauthorizedAccount",
      "type": "error"
    },
    {
      "inputs": [],
      "name": "ReentrancyGuardReentrantCall",
      "type": "error"
    },
    {
      "anonymous": false,
      "inputs": [
        {
          "indexed": true,
          "internalType": "address",
          "name": "owner",
          "type": "address"
        },
        {
          "indexed": true,
          "internalType": "address",
          "name": "spender",
          "type": "address"
        },
        {
          "indexed": false,
          "internalType": "uint256",
          "name": "value",
          "type": "uint256"
        }
      ],
      "name": "Approval",
      "type": "event"
    },
    {
      "anonymous": false,
      "inputs": [
        {
          "indexed": true,
          "internalType": "address",
          "name": "previousOwner",
          "type": "address"
        },
        {
          "indexed": true,
          "internalType": "address",
          "name": "newOwner",
          "type": "address"
        }
      ],
      "name": "OwnershipTransferred",
      "type": "event"
    },
    {
      "anonymous": false,
      "inputs": [
        {
          "indexed": false,
          "internalType": "address",
          "name": "account",
          "type": "address"
        }
      ],
      "name": "Paused",
      "type": "event"
    },
    {
      "anonymous": false,
      "inputs": [
        {
          "indexed": true,
          "internalType": "address",
          "name": "from",
          "type": "address"
        },
        {
          "indexed": true,
          "internalType": "address",
          "name": "to",
          "type": "address"
        },
        {
          "indexed": false,
          "internalType": "uint256",
          "name": "value",
          "type": "uint256"
        }
      ],
      "name": "Transfer",
      "type": "event"
    },
    {
      "anonymous": false,
      "inputs": [
        {
          "indexed": false,
          "internalType": "address",
          "name": "account",
          "type": "address"
        }
      ],
      "name": "Unpaused",
      "type": "event"
    },
    {
      "inputs": [
        {
          "internalType": "address",
          "name": "owner",
          "type": "address"
        },
        {
          "internalType": "address",
          "name": "spender",
          "type": "address"
        }
      ],
      "name": "allowance",
      "outputs": [
        {
          "internalType": "uint256",
          "name": "",
          "type": "uint256"
        }
      ],
      "stateMutability": "view",
      "type": "function"
    },
    {
      "inputs": [
        {
          "internalType": "address",
          "name": "spender",
          "type": "address"
        },
        {
          "internalType": "uint256",
          "name": "amount",
          "type": "uint256"
        }
      ],
      "name": "approve",
      "outputs": [
        {
          "internalType": "bool",
          "name": "",
          "type": "bool"
        }
      ],
      "stateMutability": "nonpayable",
      "type": "function"
    },
    {
      "inputs": [
        {
          "internalType": "address",
          "name": "account",
          "type": "address"
        }
      ],
      "name": "balanceOf",
      "outputs": [
        {
          "internalType": "uint256",
          "name": "",
          "type": "uint256"
        }
      ],
      "stateMutability": "view",
      "type": "function"
    },
    {
      "inputs": [],
      "name": "decimals",
      "outputs": [
        {
          "internalType": "uint8",
          "name": "",
          "type": "uint8"
        }
      ],
      "stateMutability": "view",
      "type": "function"
    },
    {
      "inputs": [],
      "name": "name",
      "outputs": [
        {
          "internalType": "string",
          "name": "",
          "type": "string"
        }
      ],
      "stateMutability": "view",
      "type": "function"
    },
    {
      "inputs": [],
      "name": "owner",
      "outputs": [
        {
          "internalType": "address",
          "name": "",
          "type": "address"
        }
      ],
      "stateMutability": "view",
      "type": "function"
    },
    {
      "inputs": [],
      "name": "pause",
      "outputs": [],
      "stateMutability": "nonpayable",
      "type": "function"
    },
    {
      "inputs": [],
      "name": "paused",
      "outputs": [
        {
          "internalType": "bool",
          "name": "",
          "type": "bool"
        }
      ],
      "stateMutability": "view",
      "type": "function"
    },
    {
      "inputs": [],
      "name": "renounceOwnership",
      "outputs": [],
      "stateMutability": "nonpayable",
      "type": "function"
    },
    {
      "inputs": [],
      "name": "symbol",
      "outputs": [
        {
          "internalType": "string",
          "name": "",
          "type": "string"
        }
      ],
      "stateMutability": "view",
      "type": "function"
    },
    {
      "inputs": [],
      "name": "totalSupply",
      "outputs": [
        {
          "internalType": "uint256",
          "name": "",
          "type": "uint256"
        }
      ],
      "stateMutability": "view",
      "type": "function"
    },
    {
      "inputs": [
        {
          "internalType": "address",
          "name": "to",
          "type": "address"
        },
        {
          "internalType": "uint256",
          "name": "amount",
          "type": "uint256"
        }
      ],
      "name": "transfer",
      "outputs": [
        {
          "internalType": "bool",
          "name": "",
          "type": "bool"
        }
      ],
      "stateMutability": "nonpayable",
      "type": "function"
    },
    {
      "inputs": [
        {
          "internalType": "address",
          "name": "from",
          "type": "address"
        },
        {
          "internalType": "address",
          "name": "to",
          "type": "address"
        },
        {
          "internalType": "uint256",
          "name": "amount",
          "type": "uint256"
        }
      ],
      "name": "transferFrom",
      "outputs": [
        {
          "internalType": "bool",
          "name": "",
          "type": "bool"
        }
      ],
      "stateMutability": "nonpayable",
      "type": "function"
    },
    {
      "inputs": [
        {
          "internalType": "address",
          "name": "newOwner",
          "type": "address"
        }
      ],
      "name": "transferOwnership",
      "outputs": [],
      "stateMutability": "nonpayable",
      "type": "function"
    },
    {
      "inputs": [],
      "name": "unpause",
      "outputs": [],
      "stateMutability": "nonpayable",
      "type": "function"
    }
  ],
  "bytecode": "0x60806040523480156200001157600080fd5b506040516200108e3803806200108e83398101604081905262000034916200034f565b808484600362000045838262000473565b50600462000054828262000473565b5050506001600160a01b0381166200008757604051631e4fbdf760e01b8152600060048201526024015b60405180910390fd5b6200009281620000c7565b506001600655620000bd81620000ab6012600a62000654565b620000b790856200066c565b62000119565b505050506200069c565b600580546001600160a01b038381166001600160a01b0319831681179093556040519116919082907f8be0079c531659141344cd1fd0a4f28419497f9722a3daafe3b4186f6b6457e090600090a35050565b6001600160a01b038216620001455760405163ec442f0560e01b8152600060048201526024016200007e565b620001536000838362000157565b5050565b6001600160a01b038316620001865780600260008282546200017a919062000686565b90915550620001fa9050565b6001600160a01b03831660009081526020819052604090205481811015620001db5760405163391434e360e21b81526001600160a01b038516600482015260248101829052604481018390526064016200007e565b6001600160a01b03841660009081526020819052604090209082900390555b6001600160a01b038216620002185760028054829003905562000237565b6001600160a01b03821660009081526020819052604090208054820190555b816001600160a01b0316836001600160a01b03167fddf252ad1be2c89b69c2b068fc378daa952ba7f163c4a11628f55a4df523b3ef836040516200027d91815260200190565b60405180910390a3505050565b634e487b7160e01b600052604160045260246000fd5b600082601f830112620002b257600080fd5b81516001600160401b0380821115620002cf57620002cf6200028a565b604051601f8301601f19908116603f01168101908282118183101715620002fa57620002fa6200028a565b816040528381526020925086838588010111156200031757600080fd5b600091505b838210156200033b57858201830151818301840152908201906200031c565b600093810190920192909252949350505050565b600080600080608085870312156200036657600080fd5b84516001600160401b03808211156200037e57600080fd5b6200038c88838901620002a0565b95506020870151915080821115620003a357600080fd5b50620003b287828801620002a0565b60408701516060880151919550935090506001600160a01b0381168114620003d957600080fd5b939692955090935050565b600181811c90821680620003f957607f821691505b6020821081036200041a57634e487b7160e01b600052602260045260246000fd5b50919050565b601f8211156200046e57600081815260208120601f850160051c81016020861015620004495750805b601f850160051c820191505b818110156200046a5782815560010162000455565b5050505b505050565b81516001600160401b038111156200048f576200048f6200028a565b620004a781620004a08454620003e4565b8462000420565b602080601f831160018114620004df5760008415620004c65750858301515b600019600386901b1c1916600185901b1785556200046a565b600085815260208120601f198616915b828110156200051057888601518255948401946001909101908401620004ef565b50858210156200052f5787850151600019600388901b60f8161c191681555b5050505050600190811b01905550565b634e487b7160e01b600052601160045260246000fd5b600181815b80851115620005965781600019048211156200057a576200057a6200053f565b808516156200058857918102915b93841c93908002906200055a565b509250929050565b600082620005af575060016200064e565b81620005be575060006200064e565b8160018114620005d75760028114620005e25762000602565b60019150506200064e565b60ff841115620005f657620005f66200053f565b50506001821b6200064e565b5060208310610133831016604e8410600b841016171562000627575081810a6200064e565b62000633838362000555565b80600019048211156200064a576200064a6200053f565b0290505b92915050565b60006200066560ff8416836200059e565b9392505050565b80820281158282048414176200064e576200064e6200053f565b808201808211156200064e576200064e6200053f565b6109e280620006ac6000396000f3fe608060405234801561001057600080fd5b50600436106100f55760003560e01c806370a082311161009757806395d89b411161006657806395d89b41146101d8578063a9059cbb146101e0578063dd62ed3e146101f3578063f2fde38b1461022c57600080fd5b806370a0823114610184578063715018a6146101ad5780638456cb59146101b55780638da5cb5b146101bd57600080fd5b806323b872dd116100d357806323b872dd1461014d578063313ce567146101605780633f4ba83a1461016f5780635c975abb1461017957600080fd5b806306fdde03146100fa578063095ea7b31461011857806318160ddd1461013b575b600080fd5b61010261023f565b60405161010f9190610833565b60405180910390f35b61012b61012636600461089d565b6102d1565b604051901515815260200161010f565b6002545b60405190815260200161010f565b61012b61015b3660046108c7565b6102ee565b6040516012815260200161010f565b61017761030b565b005b60075460ff1661012b565b61013f610192366004610903565b6001600160a01b031660009081526020819052604090205490565b61017761031d565b61017761032f565b6005546040516001600160a01b03909116815260200161010f565b61010261033f565b61012b6101ee36600461089d565b61034e565b61013f61020136600461091e565b6001600160a01b03918216600090815260016020908152604080832093909416825291909152205490565b61017761023a366004610903565b610362565b60606003805461024e90610951565b80601f016020809104026020016040519081016040528092919081815260200182805461027a90610951565b80156102c75780601f1061029c576101008083540402835291602001916102c7565b820191906000526020600020905b8154815290600101906020018083116102aa57829003601f168201915b5050505050905090565b60006102db6103a5565b6102e583836103c9565b90505b92915050565b60006102f86103a5565b6103038484846103e1565b949350505050565b610313610405565b61031b610432565b565b610325610405565b61031b6000610484565b610337610405565b61031b6104d6565b60606004805461024e90610951565b60006103586103a5565b6102e58383610513565b61036a610405565b6001600160a01b03811661039957604051631e4fbdf760e01b8152600060048201526024015b60405180910390fd5b6103a281610484565b50565b60075460ff161561031b5760405163d93c066560e01b815260040160405180910390fd5b6000336103d7818585610521565b5060019392505050565b6000336103ef858285610533565b6103fa8585856105b2565b506001949350505050565b6005546001600160a01b0316331461031b5760405163118cdaa760e01b8152336004820152602401610390565b61043a610611565b6007805460ff191690557f5db9ee0a495bf2e6ff9c91a7834c1ba4fdd244a5e8aa4e537bd38aeae4b073aa335b6040516001600160a01b03909116815260200160405180910390a1565b600580546001600160a01b038381166001600160a01b0319831681179093556040519116919082907f8be0079c531659141344cd1fd0a4f28419497f9722a3daafe3b4186f6b6457e090600090a35050565b6104de6103a5565b6007805460ff191660011790557f62e78cea01bee320cd4e420270b5ea74000d11b0c9f74754ebdbfc544b05a2586104673390565b6000336103d78185856105b2565b61052e8383836001610634565b505050565b6001600160a01b038381166000908152600160209081526040808320938616835292905220546000198110156105ac578181101561059d57604051637dc7a0d960e11b81526001600160a01b03841660048201526024810182905260448101839052606401610390565b6105ac84848484036000610634565b50505050565b6001600160a01b0383166105dc57604051634b637e8f60e11b815260006004820152602401610390565b6001600160a01b0382166106065760405163ec442f0560e01b815260006004820152602401610390565b61052e838383610709565b60075460ff1661031b57604051638dfc202b60e01b815260040160405180910390fd5b6001600160a01b03841661065e5760405163e602df0560e01b815260006004820152602401610390565b6001600160a01b03831661068857604051634a1406b160e11b815260006004820152602401610390565b6001600160a01b03808516600090815260016020908152604080832093871683529290522082905580156105ac57826001600160a01b0316846001600160a01b03167f8c5be1e5ebec7d5bd14f71427d1e84f3dd0314c0f7b2291e5b200ac8c7c3b925846040516106fb91815260200190565b60405180910390a350505050565b6001600160a01b038316610734578060026000828254610729919061098b565b909155506107a69050565b6001600160a01b038316600090815260208190526040902054818110156107875760405163391434e360e21b81526001600160a01b03851660048201526024810182905260448101839052606401610390565b6001600160a01b03841660009081526020819052604090209082900390555b6001600160a01b0382166107c2576002805482900390556107e1565b6001600160a01b03821660009081526020819052604090208054820190555b816001600160a01b0316836001600160a01b03167fddf252ad1be2c89b69c2b068fc378daa952ba7f163c4a11628f55a4df523b3ef8360405161082691815260200190565b60405180910390a3505050565b600060208083528351808285015260005b8181101561086057858101830151858201604001528201610844565b506000604082860101526040601f19601f8301168501019250505092915050565b80356001600160a01b038116811461089857600080fd5b919050565b600080604083850312156108b057600080fd5b6108b983610881565b946020939093013593505050565b6000806000606084860312156108dc57600080fd5b6108e584610881565b92506108f360208501610881565b9150604084013590509250925092565b60006020828403121561091557600080fd5b6102e582610881565b6000806040838503121561093157600080fd5b61093a83610881565b915061094860208401610881565b90509250929050565b600181811c9082168061096557607f821691505b60208210810361098557634e487b7160e01b600052602260045260246000fd5b50919050565b808201808211156102e857634e487b7160e01b600052601160045260246000fdfea2646970667358221220ad57d944a6d8d7f3bcbae1ef1b3d355382d344171e668efd7dc966e05f388c7164736f6c63430008140033",
  "linkReferences": {},
  "deployedLinkReferences": {}
}